{
  "_format": "hh-sol-artifact-1",
  "contractName": "FiberRouter",
  "sourceName": "contracts/upgradeable-Bridge/FiberRouter.sol",
  "abi": [
    {
      "anonymous": false,
      "inputs": [
        {
          "indexed": true,
          "internalType": "address",
          "name": "token",
          "type": "address"
        },
        {
          "indexed": false,
          "internalType": "uint256",
          "name": "preFeeAmount",
          "type": "uint256"
        },
        {
          "indexed": false,
          "internalType": "uint256",
          "name": "afterFeeAmount",
          "type": "uint256"
        },
        {
          "indexed": false,
          "internalType": "uint256",
          "name": "totalPlatformFee",
          "type": "uint256"
        }
      ],
      "name": "FeesDistributed",
      "type": "event"
    },
    {
      "anonymous": false,
      "inputs": [
        {
          "indexed": true,
          "internalType": "address",
          "name": "previousOwner",
          "type": "address"
        },
        {
          "indexed": true,
          "internalType": "address",
          "name": "newOwner",
          "type": "address"
        }
      ],
      "name": "OwnershipTransferred",
      "type": "event"
    },
    {
      "anonymous": false,
      "inputs": [
        {
          "indexed": false,
          "internalType": "address",
          "name": "router",
          "type": "address"
        },
        {
          "indexed": false,
          "internalType": "bytes",
          "name": "selector",
          "type": "bytes"
        }
      ],
      "name": "RouterAndSelectorRemoved",
      "type": "event"
    },
    {
      "anonymous": false,
      "inputs": [
        {
          "indexed": false,
          "internalType": "address",
          "name": "router",
          "type": "address"
        },
        {
          "indexed": false,
          "internalType": "bytes4",
          "name": "selector",
          "type": "bytes4"
        }
      ],
      "name": "RouterAndSelectorWhitelisted",
      "type": "event"
    },
    {
      "anonymous": false,
      "inputs": [
        {
          "indexed": false,
          "internalType": "address",
          "name": "sourceToken",
          "type": "address"
        },
        {
          "indexed": false,
          "internalType": "address",
          "name": "targetToken",
          "type": "address"
        },
        {
          "indexed": false,
          "internalType": "uint256",
          "name": "sourceChainId",
          "type": "uint256"
        },
        {
          "indexed": false,
          "internalType": "uint256",
          "name": "targetChainId",
          "type": "uint256"
        },
        {
          "indexed": false,
          "internalType": "uint256",
          "name": "sourceAmount",
          "type": "uint256"
        },
        {
          "indexed": false,
          "internalType": "address",
          "name": "sourceAddress",
          "type": "address"
        },
        {
          "indexed": false,
          "internalType": "address",
          "name": "targetAddress",
          "type": "address"
        },
        {
          "indexed": false,
          "internalType": "uint256",
          "name": "settledAmount",
          "type": "uint256"
        },
        {
          "indexed": false,
          "internalType": "bytes32",
          "name": "withdrawalData",
          "type": "bytes32"
        },
        {
          "indexed": false,
          "internalType": "uint256",
          "name": "gasAmount",
          "type": "uint256"
        },
        {
          "indexed": false,
          "internalType": "uint256",
          "name": "depositNonce",
          "type": "uint256"
        }
      ],
      "name": "Swap",
      "type": "event"
    },
    {
      "anonymous": false,
      "inputs": [
        {
          "indexed": false,
          "internalType": "address",
          "name": "sourceToken",
          "type": "address"
        },
        {
          "indexed": false,
          "internalType": "address",
          "name": "targetToken",
          "type": "address"
        },
        {
          "indexed": false,
          "internalType": "uint256",
          "name": "sourceAmount",
          "type": "uint256"
        },
        {
          "indexed": false,
          "internalType": "uint256",
          "name": "settledAmount",
          "type": "uint256"
        },
        {
          "indexed": false,
          "internalType": "address",
          "name": "sourceAddress",
          "type": "address"
        },
        {
          "indexed": false,
          "internalType": "address",
          "name": "targetAddress",
          "type": "address"
        }
      ],
      "name": "SwapSameNetwork",
      "type": "event"
    },
    {
      "anonymous": false,
      "inputs": [
        {
          "indexed": false,
          "internalType": "address",
          "name": "token",
          "type": "address"
        },
        {
          "indexed": false,
          "internalType": "address",
          "name": "receiver",
          "type": "address"
        },
        {
          "indexed": false,
          "internalType": "uint256",
          "name": "amount",
          "type": "uint256"
        },
        {
          "indexed": false,
          "internalType": "bytes32",
          "name": "salt",
          "type": "bytes32"
        },
        {
          "indexed": false,
          "internalType": "bytes",
          "name": "signature",
          "type": "bytes"
        }
      ],
      "name": "Withdraw",
      "type": "event"
    },
    {
      "anonymous": false,
      "inputs": [
        {
          "indexed": false,
          "internalType": "address",
          "name": "to",
          "type": "address"
        },
        {
          "indexed": false,
          "internalType": "uint256",
          "name": "amountIn",
          "type": "uint256"
        },
        {
          "indexed": false,
          "internalType": "uint256",
          "name": "amountOut",
          "type": "uint256"
        },
        {
          "indexed": false,
          "internalType": "address",
          "name": "foundryToken",
          "type": "address"
        },
        {
          "indexed": false,
          "internalType": "address",
          "name": "targetToken",
          "type": "address"
        },
        {
          "indexed": false,
          "internalType": "address",
          "name": "router",
          "type": "address"
        },
        {
          "indexed": false,
          "internalType": "bytes",
          "name": "routerCalldata",
          "type": "bytes"
        },
        {
          "indexed": false,
          "internalType": "bytes32",
          "name": "salt",
          "type": "bytes32"
        },
        {
          "indexed": false,
          "internalType": "bytes",
          "name": "multiSignature",
          "type": "bytes"
        }
      ],
      "name": "WithdrawRouter",
      "type": "event"
    },
    {
      "inputs": [],
      "name": "NAME",
      "outputs": [
        {
          "internalType": "string",
          "name": "",
          "type": "string"
        }
      ],
      "stateMutability": "view",
      "type": "function"
    },
    {
      "inputs": [],
      "name": "VERSION",
      "outputs": [
        {
          "internalType": "string",
          "name": "",
          "type": "string"
        }
      ],
      "stateMutability": "view",
      "type": "function"
    },
    {
      "inputs": [
        {
          "internalType": "address",
          "name": "router",
          "type": "address"
        },
        {
          "internalType": "bytes4[]",
          "name": "selectors",
          "type": "bytes4[]"
        }
      ],
      "name": "addRouterAndSelectors",
      "outputs": [],
      "stateMutability": "nonpayable",
      "type": "function"
    },
    {
      "inputs": [
        {
          "internalType": "address",
          "name": "_signer",
          "type": "address"
        }
      ],
      "name": "addSigner",
      "outputs": [],
      "stateMutability": "nonpayable",
      "type": "function"
    },
    {
      "inputs": [],
      "name": "cctpFundManager",
      "outputs": [
        {
          "internalType": "address",
          "name": "",
          "type": "address"
        }
      ],
      "stateMutability": "view",
      "type": "function"
    },
    {
      "inputs": [],
      "name": "feeWallet",
      "outputs": [
        {
          "internalType": "address",
          "name": "",
          "type": "address"
        }
      ],
      "stateMutability": "view",
      "type": "function"
    },
    {
      "inputs": [],
      "name": "fundManager",
      "outputs": [
        {
          "internalType": "address",
          "name": "",
          "type": "address"
        }
      ],
      "stateMutability": "view",
      "type": "function"
    },
    {
      "inputs": [],
      "name": "gasWallet",
      "outputs": [
        {
          "internalType": "address payable",
          "name": "",
          "type": "address"
        }
      ],
      "stateMutability": "view",
      "type": "function"
    },
    {
      "inputs": [
        {
          "internalType": "address",
          "name": "",
          "type": "address"
        }
      ],
      "name": "inventory",
      "outputs": [
        {
          "internalType": "uint256",
          "name": "",
          "type": "uint256"
        }
      ],
      "stateMutability": "view",
      "type": "function"
    },
    {
      "inputs": [
        {
          "internalType": "address",
          "name": "router",
          "type": "address"
        },
        {
          "internalType": "bytes",
          "name": "selector",
          "type": "bytes"
        }
      ],
      "name": "isAllowListed",
      "outputs": [
        {
          "internalType": "bool",
          "name": "",
          "type": "bool"
        }
      ],
      "stateMutability": "view",
      "type": "function"
    },
    {
      "inputs": [
        {
          "internalType": "uint256",
          "name": "cdPtr",
          "type": "uint256"
        }
      ],
      "name": "isCctp",
      "outputs": [
        {
          "internalType": "bool",
          "name": "cctp",
          "type": "bool"
        }
      ],
      "stateMutability": "pure",
      "type": "function"
    },
    {
      "inputs": [],
      "name": "owner",
      "outputs": [
        {
          "internalType": "address",
          "name": "",
          "type": "address"
        }
      ],
      "stateMutability": "view",
      "type": "function"
    },
    {
      "inputs": [],
      "name": "platformFee",
      "outputs": [
        {
          "internalType": "uint256",
          "name": "",
          "type": "uint256"
        }
      ],
      "stateMutability": "view",
      "type": "function"
    },
    {
      "inputs": [
        {
          "internalType": "address",
          "name": "router",
          "type": "address"
        },
        {
          "internalType": "bytes",
          "name": "selector",
          "type": "bytes"
        }
      ],
      "name": "removeRouterAndSelector",
      "outputs": [],
      "stateMutability": "nonpayable",
      "type": "function"
    },
    {
      "inputs": [
        {
          "internalType": "address",
          "name": "_signer",
          "type": "address"
        }
      ],
      "name": "removeSigner",
      "outputs": [],
      "stateMutability": "nonpayable",
      "type": "function"
    },
    {
      "inputs": [],
      "name": "renounceOwnership",
      "outputs": [],
      "stateMutability": "nonpayable",
      "type": "function"
    },
    {
      "inputs": [
        {
          "internalType": "address",
          "name": "_cctpFundManager",
          "type": "address"
        }
      ],
      "name": "setCCTPFundManager",
      "outputs": [],
      "stateMutability": "nonpayable",
      "type": "function"
    },
    {
      "inputs": [
        {
          "internalType": "address",
          "name": "_feeWallet",
          "type": "address"
        }
      ],
      "name": "setFeeWallet",
      "outputs": [],
      "stateMutability": "nonpayable",
      "type": "function"
    },
    {
      "inputs": [
        {
          "internalType": "address",
          "name": "_fundManager",
          "type": "address"
        }
      ],
      "name": "setFundManager",
      "outputs": [],
      "stateMutability": "nonpayable",
      "type": "function"
    },
    {
      "inputs": [
        {
          "internalType": "address payable",
          "name": "_gasWallet",
          "type": "address"
        }
      ],
      "name": "setGasWallet",
      "outputs": [],
      "stateMutability": "nonpayable",
      "type": "function"
    },
    {
      "inputs": [
        {
          "internalType": "uint256",
          "name": "_platformFee",
          "type": "uint256"
        }
      ],
      "name": "setPlatformFee",
      "outputs": [],
      "stateMutability": "nonpayable",
      "type": "function"
    },
    {
      "inputs": [
        {
          "internalType": "address",
          "name": "_weth",
          "type": "address"
        }
      ],
      "name": "setWeth",
      "outputs": [],
      "stateMutability": "nonpayable",
      "type": "function"
    },
    {
      "inputs": [
        {
          "internalType": "address",
          "name": "",
          "type": "address"
        }
      ],
      "name": "signers",
      "outputs": [
        {
          "internalType": "bool",
          "name": "",
          "type": "bool"
        }
      ],
      "stateMutability": "view",
      "type": "function"
    },
    {
      "inputs": [
        {
          "internalType": "uint256",
          "name": "amountIn",
          "type": "uint256"
        },
        {
          "internalType": "uint256",
          "name": "minAmountOut",
          "type": "uint256"
        },
        {
          "internalType": "address",
          "name": "fromToken",
          "type": "address"
        },
        {
          "internalType": "address",
          "name": "toToken",
          "type": "address"
        },
        {
          "internalType": "address",
          "name": "targetAddress",
          "type": "address"
        },
        {
          "internalType": "address",
          "name": "router",
          "type": "address"
        },
        {
          "internalType": "bytes",
          "name": "routerCalldata",
          "type": "bytes"
        }
      ],
      "name": "swapOnSameNetwork",
      "outputs": [],
      "stateMutability": "nonpayable",
      "type": "function"
    },
    {
      "inputs": [
        {
          "internalType": "uint256",
          "name": "minAmountOut",
          "type": "uint256"
        },
        {
          "internalType": "address",
          "name": "toToken",
          "type": "address"
        },
        {
          "internalType": "address",
          "name": "targetAddress",
          "type": "address"
        },
        {
          "internalType": "address",
          "name": "router",
          "type": "address"
        },
        {
          "internalType": "bytes",
          "name": "routerCalldata",
          "type": "bytes"
        }
      ],
      "name": "swapOnSameNetworkETH",
      "outputs": [],
      "stateMutability": "payable",
      "type": "function"
    },
    {
      "inputs": [
        {
          "internalType": "address",
          "name": "token",
          "type": "address"
        },
        {
          "internalType": "uint256",
          "name": "amount",
          "type": "uint256"
        },
        {
          "components": [
            {
              "internalType": "uint256",
              "name": "targetNetwork",
              "type": "uint256"
            },
            {
              "internalType": "address",
              "name": "targetToken",
              "type": "address"
            },
            {
              "internalType": "address",
              "name": "targetAddress",
              "type": "address"
            }
          ],
          "internalType": "struct FiberRouter.SwapCrossData",
          "name": "sd",
          "type": "tuple"
        },
        {
          "internalType": "bytes32",
          "name": "withdrawalData",
          "type": "bytes32"
        },
        {
          "internalType": "bool",
          "name": "cctpType",
          "type": "bool"
        },
        {
          "components": [
            {
              "internalType": "address",
              "name": "referral",
              "type": "address"
            },
            {
              "internalType": "uint256",
              "name": "referralFee",
              "type": "uint256"
            },
            {
              "internalType": "uint256",
              "name": "referralDiscount",
              "type": "uint256"
            },
            {
              "internalType": "uint256",
              "name": "sourceAmountIn",
              "type": "uint256"
            },
            {
              "internalType": "uint256",
              "name": "sourceAmountOut",
              "type": "uint256"
            },
            {
              "internalType": "uint256",
              "name": "destinationAmountIn",
              "type": "uint256"
            },
            {
              "internalType": "uint256",
              "name": "destinationAmountOut",
              "type": "uint256"
            },
            {
              "internalType": "bytes32",
              "name": "salt",
              "type": "bytes32"
            },
            {
              "internalType": "uint256",
              "name": "expiry",
              "type": "uint256"
            },
            {
              "internalType": "bytes",
              "name": "signature",
              "type": "bytes"
            }
          ],
          "internalType": "struct FeeDistributor.FeeDistributionData",
          "name": "fd",
          "type": "tuple"
        }
      ],
      "name": "swapSigned",
      "outputs": [],
      "stateMutability": "payable",
      "type": "function"
    },
    {
      "inputs": [
        {
          "internalType": "uint256",
          "name": "amountIn",
          "type": "uint256"
        },
        {
          "internalType": "uint256",
          "name": "minAmountOut",
          "type": "uint256"
        },
        {
          "internalType": "address",
          "name": "fromToken",
          "type": "address"
        },
        {
          "internalType": "address",
          "name": "foundryToken",
          "type": "address"
        },
        {
          "internalType": "address",
          "name": "router",
          "type": "address"
        },
        {
          "internalType": "bytes",
          "name": "routerCalldata",
          "type": "bytes"
        },
        {
          "components": [
            {
              "internalType": "uint256",
              "name": "targetNetwork",
              "type": "uint256"
            },
            {
              "internalType": "address",
              "name": "targetToken",
              "type": "address"
            },
            {
              "internalType": "address",
              "name": "targetAddress",
              "type": "address"
            }
          ],
          "internalType": "struct FiberRouter.SwapCrossData",
          "name": "sd",
          "type": "tuple"
        },
        {
          "internalType": "bytes32",
          "name": "withdrawalData",
          "type": "bytes32"
        },
        {
          "internalType": "bool",
          "name": "cctpType",
          "type": "bool"
        },
        {
          "components": [
            {
              "internalType": "address",
              "name": "referral",
              "type": "address"
            },
            {
              "internalType": "uint256",
              "name": "referralFee",
              "type": "uint256"
            },
            {
              "internalType": "uint256",
              "name": "referralDiscount",
              "type": "uint256"
            },
            {
              "internalType": "uint256",
              "name": "sourceAmountIn",
              "type": "uint256"
            },
            {
              "internalType": "uint256",
              "name": "sourceAmountOut",
              "type": "uint256"
            },
            {
              "internalType": "uint256",
              "name": "destinationAmountIn",
              "type": "uint256"
            },
            {
              "internalType": "uint256",
              "name": "destinationAmountOut",
              "type": "uint256"
            },
            {
              "internalType": "bytes32",
              "name": "salt",
              "type": "bytes32"
            },
            {
              "internalType": "uint256",
              "name": "expiry",
              "type": "uint256"
            },
            {
              "internalType": "bytes",
              "name": "signature",
              "type": "bytes"
            }
          ],
          "internalType": "struct FeeDistributor.FeeDistributionData",
          "name": "fd",
          "type": "tuple"
        }
      ],
      "name": "swapSignedAndCrossRouter",
      "outputs": [],
      "stateMutability": "payable",
      "type": "function"
    },
    {
      "inputs": [
        {
          "internalType": "uint256",
          "name": "minAmountOut",
          "type": "uint256"
        },
        {
          "internalType": "address",
          "name": "foundryToken",
          "type": "address"
        },
        {
          "internalType": "uint256",
          "name": "gasFee",
          "type": "uint256"
        },
        {
          "internalType": "address",
          "name": "router",
          "type": "address"
        },
        {
          "internalType": "bytes",
          "name": "routerCalldata",
          "type": "bytes"
        },
        {
          "components": [
            {
              "internalType": "uint256",
              "name": "targetNetwork",
              "type": "uint256"
            },
            {
              "internalType": "address",
              "name": "targetToken",
              "type": "address"
            },
            {
              "internalType": "address",
              "name": "targetAddress",
              "type": "address"
            }
          ],
          "internalType": "struct FiberRouter.SwapCrossData",
          "name": "sd",
          "type": "tuple"
        },
        {
          "internalType": "bytes32",
          "name": "withdrawalData",
          "type": "bytes32"
        },
        {
          "internalType": "bool",
          "name": "cctpType",
          "type": "bool"
        },
        {
          "components": [
            {
              "internalType": "address",
              "name": "referral",
              "type": "address"
            },
            {
              "internalType": "uint256",
              "name": "referralFee",
              "type": "uint256"
            },
            {
              "internalType": "uint256",
              "name": "referralDiscount",
              "type": "uint256"
            },
            {
              "internalType": "uint256",
              "name": "sourceAmountIn",
              "type": "uint256"
            },
            {
              "internalType": "uint256",
              "name": "sourceAmountOut",
              "type": "uint256"
            },
            {
              "internalType": "uint256",
              "name": "destinationAmountIn",
              "type": "uint256"
            },
            {
              "internalType": "uint256",
              "name": "destinationAmountOut",
              "type": "uint256"
            },
            {
              "internalType": "bytes32",
              "name": "salt",
              "type": "bytes32"
            },
            {
              "internalType": "uint256",
              "name": "expiry",
              "type": "uint256"
            },
            {
              "internalType": "bytes",
              "name": "signature",
              "type": "bytes"
            }
          ],
          "internalType": "struct FeeDistributor.FeeDistributionData",
          "name": "fd",
          "type": "tuple"
        }
      ],
      "name": "swapSignedAndCrossRouterETH",
      "outputs": [],
      "stateMutability": "payable",
      "type": "function"
    },
    {
      "inputs": [
        {
          "internalType": "uint256",
          "name": "",
          "type": "uint256"
        }
      ],
      "name": "targetNetworks",
      "outputs": [
        {
          "internalType": "uint32",
          "name": "targetNetworkDomain",
          "type": "uint32"
        },
        {
          "internalType": "address",
          "name": "targetFundManager",
          "type": "address"
        }
      ],
      "stateMutability": "view",
      "type": "function"
    },
    {
      "inputs": [
        {
          "internalType": "address",
          "name": "newOwner",
          "type": "address"
        }
      ],
      "name": "transferOwnership",
      "outputs": [],
      "stateMutability": "nonpayable",
      "type": "function"
    },
    {
      "inputs": [
        {
          "internalType": "bytes32",
          "name": "",
          "type": "bytes32"
        }
      ],
      "name": "usedSalt",
      "outputs": [
        {
          "internalType": "bool",
          "name": "",
          "type": "bool"
        }
      ],
      "stateMutability": "view",
      "type": "function"
    },
    {
      "inputs": [],
      "name": "weth",
      "outputs": [
        {
          "internalType": "address",
          "name": "",
          "type": "address"
        }
      ],
      "stateMutability": "view",
      "type": "function"
    },
    {
      "inputs": [
        {
          "internalType": "address",
          "name": "token",
          "type": "address"
        },
        {
          "internalType": "address",
          "name": "payee",
          "type": "address"
        },
        {
          "internalType": "uint256",
          "name": "amount",
          "type": "uint256"
        },
        {
          "internalType": "bytes32",
          "name": "salt",
          "type": "bytes32"
        },
        {
          "internalType": "uint256",
          "name": "expiry",
          "type": "uint256"
        },
        {
          "internalType": "bytes",
          "name": "multiSignature",
          "type": "bytes"
        },
        {
          "internalType": "bool",
          "name": "cctpType",
          "type": "bool"
        }
      ],
      "name": "withdrawSigned",
      "outputs": [],
      "stateMutability": "nonpayable",
      "type": "function"
    },
    {
      "inputs": [
        {
          "internalType": "address payable",
          "name": "to",
          "type": "address"
        },
        {
          "internalType": "uint256",
          "name": "amountIn",
          "type": "uint256"
        },
        {
          "internalType": "uint256",
          "name": "minAmountOut",
          "type": "uint256"
        },
        {
          "internalType": "address",
          "name": "foundryToken",
          "type": "address"
        },
        {
          "internalType": "address",
          "name": "targetToken",
          "type": "address"
        },
        {
          "internalType": "address",
          "name": "router",
          "type": "address"
        },
        {
          "internalType": "bytes",
          "name": "routerCalldata",
          "type": "bytes"
        },
        {
          "internalType": "bytes32",
          "name": "salt",
          "type": "bytes32"
        },
        {
          "internalType": "uint256",
          "name": "expiry",
          "type": "uint256"
        },
        {
          "internalType": "bytes",
          "name": "multiSignature",
          "type": "bytes"
        },
        {
          "internalType": "bool",
          "name": "cctpType",
          "type": "bool"
        }
      ],
      "name": "withdrawSignedAndSwapRouter",
      "outputs": [],
      "stateMutability": "nonpayable",
      "type": "function"
    }
  ],
  "bytecode": "0x608060405234801561001057600080fd5b50612aaf806100206000396000f3fe60806040526004361061010d5760003560e01c806373050a8a116100955780638da5cb5b116100645780638da5cb5b146102d95780639f240e7d146102f7578063bdb519b414610317578063f2fde38b14610337578063ffe902e41461035757610114565b806373050a8a146102645780638129fc1c146102845780638909d733146102995780638d6e9291146102b957610114565b806342cc17c6116100dc57806342cc17c6146101dc5780634437152a146101fc5780635528170f1461021c5780635c38eb3a1461022f578063715018a61461024f57610114565b80630efe792d1461011957806316f0115b1461014c5780631fd48b9a146101845780633364a4e5146101ba57610114565b3661011457005b600080fd5b34801561012557600080fd5b50610139610134366004612047565b610377565b6040519081526020015b60405180910390f35b34801561015857600080fd5b5060975461016c906001600160a01b031681565b6040516001600160a01b039091168152602001610143565b34801561019057600080fd5b5061016c61019f366004612047565b6098602052600090815260409020546001600160a01b031681565b3480156101c657600080fd5b506101da6101d5366004612178565b6104c4565b005b3480156101e857600080fd5b506101da6101f73660046124bb565b610829565b34801561020857600080fd5b506101da610217366004612047565b6109cf565b6101da61022a366004612262565b6109f9565b34801561023b57600080fd5b506101da61024a36600461222a565b610bf5565b34801561025b57600080fd5b506101da610c2b565b34801561027057600080fd5b506101da61027f366004612303565b610c3f565b34801561029057600080fd5b506101da610db0565b3480156102a557600080fd5b506101da6102b43660046123fd565b610ec9565b3480156102c557600080fd5b506101da6102d4366004612104565b611061565b3480156102e557600080fd5b506065546001600160a01b031661016c565b34801561030357600080fd5b506101da610312366004612178565b611123565b34801561032357600080fd5b506101da61033236600461207f565b6112c6565b34801561034357600080fd5b506101da610352366004612047565b6113de565b34801561036357600080fd5b506101da610372366004612397565b611454565b6001600160a01b03808216600090815260986020526040808220548151633fabe5a360e21b815291519293849391169163feaf968c9160048083019260a0929190829003018186803b1580156103cc57600080fd5b505afa1580156103e0573d6000803e3d6000fd5b505050506040513d601f19601f82011682018060405250810190610404919061259f565b5050506001600160a01b03808616600090815260986020908152604080832054815163313ce56760e01b81529151959750929550919092169263313ce56792600480840193919291829003018186803b15801561046057600080fd5b505afa158015610474573d6000803e3d6000fd5b505050506040513d601f19601f8201168201806040525081019061049891906125ee565b90506104a58160126129e9565b6104b090600a6128e2565b6104ba90836129b3565b925050505b919050565b6001841161050e5760405162461bcd60e51b815260206004820152601260248201527110948e881c185d1a081d1bdbc81cda1bdc9d60721b60448201526064015b60405180910390fd5b6097546001600160a01b0316638d6e9291868660008161053e57634e487b7160e01b600052603260045260246000fd5b90506020020160208101906105539190612047565b308a86866040518663ffffffff1660e01b8152600401610577959493929190612657565b602060405180830381600087803b15801561059157600080fd5b505af11580156105a5573d6000803e3d6000fd5b505050506040513d601f19601f820116820180604052508101906105c99190612587565b50848460008181106105eb57634e487b7160e01b600052603260045260246000fd5b90506020020160208101906106009190612047565b6040516370a0823160e01b81523060048201526001600160a01b0391909116906370a082319060240160206040518083038186803b15801561064157600080fd5b505afa158015610655573d6000803e3d6000fd5b505050506040513d601f19601f820116820180604052508101906106799190612587565b96508484600081811061069c57634e487b7160e01b600052603260045260246000fd5b90506020020160208101906106b19190612047565b60405163095ea7b360e01b81526001600160a01b038a81166004830152602482018a9052919091169063095ea7b390604401602060405180830381600087803b1580156106fd57600080fd5b505af1158015610711573d6000803e3d6000fd5b505050506040513d601f19601f820116820180604052508101906107359190612567565b50876001600160a01b0316635c11d795888888888e896040518763ffffffff1660e01b815260040161076c96959493929190612809565b600060405180830381600087803b15801561078657600080fd5b505af115801561079a573d6000803e3d6000fd5b507fddc564cdf1d96bd777ab33f08c46f9281c10a4caf7fd7f841bbfc4a85d55064092508791508690506107cf6001826129d2565b8181106107ec57634e487b7160e01b600052603260045260246000fd5b90506020020160208101906108019190612047565b8a888585604051610816959493929190612657565b60405180910390a1505050505050505050565b6108316115db565b6108728787600081811061085557634e487b7160e01b600052603260045260246000fd5b905060200201602081019061086a9190612047565b33308c611635565b98508686600081811061089557634e487b7160e01b600052603260045260246000fd5b90506020020160208101906108aa9190612047565b60405163095ea7b360e01b81526001600160a01b038c81166004830152602482018c9052919091169063095ea7b390604401602060405180830381600087803b1580156108f657600080fd5b505af115801561090a573d6000803e3d6000fd5b505050506040513d601f19601f8201168201806040525081019061092e9190612567565b50610940338b8b8b8b8b8b8b8b6117c5565b7f20bd279a6fcdf91b6b6adb80be0563b3410115638efdfad76619241075fa3dcc8787600081811061098257634e487b7160e01b600052603260045260246000fd5b90506020020160208101906109979190612047565b8446878d3388886040516109b298979695949392919061269c565b60405180910390a16109c360018055565b50505050505050505050565b6109d76119ab565b609780546001600160a01b0319166001600160a01b0392909216919091179055565b610a016115db565b600034905060008a6001600160a01b031663ad5c46486040518163ffffffff1660e01b815260040160206040518083038186803b158015610a4157600080fd5b505afa158015610a55573d6000803e3d6000fd5b505050506040513d601f19601f82011682018060405250810190610a799190612063565b60405163095ea7b360e01b81526001600160a01b038d81166004830152602482018590529192509082169063095ea7b390604401602060405180830381600087803b158015610ac757600080fd5b505af1158015610adb573d6000803e3d6000fd5b505050506040513d601f19601f82011682018060405250810190610aff9190612567565b50806001600160a01b031663d0e30db0836040518263ffffffff1660e01b81526004016000604051808303818588803b158015610b3b57600080fd5b505af1158015610b4f573d6000803e3d6000fd5b5050505050610b65338c848d8d8d8d8d8d6117c5565b7f20bd279a6fcdf91b6b6adb80be0563b3410115638efdfad76619241075fa3dcc89896000818110610ba757634e487b7160e01b600052603260045260246000fd5b9050602002016020810190610bbc9190612047565b86468986338a8a604051610bd798979695949392919061269c565b60405180910390a15050610bea60018055565b505050505050505050565b610bfd6119ab565b6001600160a01b03918216600090815260986020526040902080546001600160a01b03191691909216179055565b610c336119ab565b610c3d6000611a05565b565b610c546001600160a01b038616333087611a57565b60975460405163095ea7b360e01b81526001600160a01b039182166004820152602481018690529086169063095ea7b390604401602060405180830381600087803b158015610ca257600080fd5b505af1158015610cb6573d6000803e3d6000fd5b505050506040513d601f19601f82011682018060405250810190610cda9190612567565b5060975460405163ad93428360e01b81526001600160a01b039091169063ad93428390610d139088908890889088908890600401612752565b602060405180830381600087803b158015610d2d57600080fd5b505af1158015610d41573d6000803e3d6000fd5b505050506040513d601f19601f82011682018060405250810190610d659190612587565b507fd4ae853fa41178d463a3b92f087a90e2c0f4716a4118223157c78cef74d8c1cc85834686883387604051610da197969594939291906126e7565b60405180910390a15050505050565b600054610100900460ff1615808015610dd05750600054600160ff909116105b80610dea5750303b158015610dea575060005460ff166001145b610e4d5760405162461bcd60e51b815260206004820152602e60248201527f496e697469616c697a61626c653a20636f6e747261637420697320616c72656160448201526d191e481a5b9a5d1a585b1a5e995960921b6064820152608401610505565b6000805460ff191660011790558015610e70576000805461ff0019166101001790555b610e78611ab7565b610e80611ae6565b8015610ec6576000805461ff0019169055604051600181527f7f26b83ff96e1f2b6a682f133852f6798a09c465da95921460cefb38474024989060200160405180910390a15b50565b610ed16115db565b610f1286866000818110610ef557634e487b7160e01b600052603260045260246000fd5b9050602002016020810190610f0a9190612047565b33308b611635565b975085856000818110610f3557634e487b7160e01b600052603260045260246000fd5b9050602002016020810190610f4a9190612047565b60405163095ea7b360e01b81526001600160a01b038b81166004830152602482018b9052919091169063095ea7b390604401602060405180830381600087803b158015610f9657600080fd5b505af1158015610faa573d6000803e3d6000fd5b505050506040513d601f19601f82011682018060405250810190610fce9190612567565b50610fe0818a8a8a8a8a8a8a8a611b15565b7fd4ae853fa41178d463a3b92f087a90e2c0f4716a4118223157c78cef74d8c1cc8686600081811061102257634e487b7160e01b600052603260045260246000fd5b90506020020160208101906110379190612047565b8346868c338760405161105097969594939291906126e7565b60405180910390a1610bea60018055565b609754604051638d6e929160e01b81526001600160a01b0390911690638d6e9291906110999088908890889088908890600401612657565b602060405180830381600087803b1580156110b357600080fd5b505af11580156110c7573d6000803e3d6000fd5b505050506040513d601f19601f820116820180604052508101906110eb9190612587565b507fddc564cdf1d96bd777ab33f08c46f9281c10a4caf7fd7f841bbfc4a85d5506408585858585604051610da1959493929190612657565b6097546001600160a01b0316638d6e9291868660008161115357634e487b7160e01b600052603260045260246000fd5b90506020020160208101906111689190612047565b308a86866040518663ffffffff1660e01b815260040161118c959493929190612657565b602060405180830381600087803b1580156111a657600080fd5b505af11580156111ba573d6000803e3d6000fd5b505050506040513d601f19601f820116820180604052508101906111de9190612587565b508484600081811061120057634e487b7160e01b600052603260045260246000fd5b90506020020160208101906112159190612047565b6040516370a0823160e01b81523060048201526001600160a01b0391909116906370a082319060240160206040518083038186803b15801561125657600080fd5b505afa15801561126a573d6000803e3d6000fd5b505050506040513d601f19601f8201168201806040525081019061128e9190612587565b9650876001600160a01b031663791ac947888888888e896040518763ffffffff1660e01b815260040161076c96959493929190612809565b6112ce6115db565b60006112d987610377565b905060006112e687610377565b90506000816112f584886129b3565b6112ff919061287c565b609754604051638d6e929160e01b81529192506001600160a01b031690638d6e929190611338908b908b9086908b908b90600401612657565b602060405180830381600087803b15801561135257600080fd5b505af1158015611366573d6000803e3d6000fd5b505050506040513d601f19601f8201168201806040525081019061138a9190612587565b507fddc564cdf1d96bd777ab33f08c46f9281c10a4caf7fd7f841bbfc4a85d55064088888888886040516113c2959493929190612657565b60405180910390a15050506113d660018055565b505050505050565b6113e66119ab565b6001600160a01b03811661144b5760405162461bcd60e51b815260206004820152602660248201527f4f776e61626c653a206e6577206f776e657220697320746865207a65726f206160448201526564647265737360d01b6064820152608401610505565b610ec681611a05565b6114696001600160a01b038716333088611a57565b60975460405163095ea7b360e01b81526001600160a01b039182166004820152602481018790529087169063095ea7b390604401602060405180830381600087803b1580156114b757600080fd5b505af11580156114cb573d6000803e3d6000fd5b505050506040513d601f19601f820116820180604052508101906114ef9190612567565b506097546040516352f9567d60e01b81526001600160a01b038881166004830152602482018890526044820187905285811660648301528481166084830152909116906352f9567d9060a401602060405180830381600087803b15801561155557600080fd5b505af1158015611569573d6000803e3d6000fd5b505050506040513d601f19601f8201168201806040525081019061158d9190612587565b507f20bd279a6fcdf91b6b6adb80be0563b3410115638efdfad76619241075fa3dcc86844687893388886040516115cb98979695949392919061269c565b60405180910390a1505050505050565b6002600154141561162e5760405162461bcd60e51b815260206004820152601f60248201527f5265656e7472616e637947756172643a207265656e7472616e742063616c6c006044820152606401610505565b6002600155565b6040516370a0823160e01b81526001600160a01b03838116600483015260009182918716906370a082319060240160206040518083038186803b15801561167b57600080fd5b505afa15801561168f573d6000803e3d6000fd5b505050506040513d601f19601f820116820180604052508101906116b39190612587565b90506116ca6001600160a01b038716868686611a57565b6040516370a0823160e01b81526001600160a01b038581166004830152600091908816906370a082319060240160206040518083038186803b15801561170f57600080fd5b505afa158015611723573d6000803e3d6000fd5b505050506040513d601f19601f820116820180604052508101906117479190612587565b905061175382826129d2565b9250838311156117bb5760405162461bcd60e51b815260206004820152602d60248201527f53413a2061637475616c20616d6f756e74206c6172676572207468616e20747260448201526c185b9cd9995c88185b5bdd5b9d609a1b6064820152608401610505565b5050949350505050565b604051635c11d79560e01b81526001600160a01b03891690635c11d795906117fb908a908a908a908a9030908b90600401612809565b600060405180830381600087803b15801561181557600080fd5b505af1158015611829573d6000803e3d6000fd5b506000925087915086905061183f6001826129d2565b81811061185c57634e487b7160e01b600052603260045260246000fd5b90506020020160208101906118719190612047565b60975460405163095ea7b360e01b81526001600160a01b039182166004820152602481018a905291925082169063095ea7b390604401602060405180830381600087803b1580156118c157600080fd5b505af11580156118d5573d6000803e3d6000fd5b505050506040513d601f19601f820116820180604052508101906118f99190612567565b506097546040516352f9567d60e01b81526001600160a01b038381166004830152602482018a90526044820186905284811660648301528c81166084830152909116906352f9567d9060a4015b602060405180830381600087803b15801561196057600080fd5b505af1158015611974573d6000803e3d6000fd5b505050506040513d601f19601f820116820180604052508101906119989190612587565b5050505050505050505050565b60018055565b6065546001600160a01b03163314610c3d5760405162461bcd60e51b815260206004820181905260248201527f4f776e61626c653a2063616c6c6572206973206e6f7420746865206f776e65726044820152606401610505565b606580546001600160a01b038381166001600160a01b0319831681179093556040519116919082907f8be0079c531659141344cd1fd0a4f28419497f9722a3daafe3b4186f6b6457e090600090a35050565b604080516001600160a01b0385811660248301528416604482015260648082018490528251808303909101815260849091019091526020810180516001600160e01b03166323b872dd60e01b179052611ab1908590611c93565b50505050565b600054610100900460ff16611ade5760405162461bcd60e51b8152600401610505906127be565b610c3d611d6a565b600054610100900460ff16611b0d5760405162461bcd60e51b8152600401610505906127be565b610c3d611d9a565b604051635c11d79560e01b81526001600160a01b03891690635c11d79590611b4b908a908a908a908a9030908b90600401612809565b600060405180830381600087803b158015611b6557600080fd5b505af1158015611b79573d6000803e3d6000fd5b5060009250879150869050611b8f6001826129d2565b818110611bac57634e487b7160e01b600052603260045260246000fd5b9050602002016020810190611bc19190612047565b60975460405163095ea7b360e01b81526001600160a01b039182166004820152602481018a905291925082169063095ea7b390604401602060405180830381600087803b158015611c1157600080fd5b505af1158015611c25573d6000803e3d6000fd5b505050506040513d601f19601f82011682018060405250810190611c499190612567565b50609760009054906101000a90046001600160a01b03166001600160a01b031663ad934283828986868f6040518663ffffffff1660e01b8152600401611946959493929190612752565b6000611ce8826040518060400160405280602081526020017f5361666545524332303a206c6f772d6c6576656c2063616c6c206661696c6564815250856001600160a01b0316611dc19092919063ffffffff16565b805190915015611d655780806020019051810190611d069190612567565b611d655760405162461bcd60e51b815260206004820152602a60248201527f5361666545524332303a204552433230206f7065726174696f6e20646964206e6044820152691bdd081cdd58d8d9595960b21b6064820152608401610505565b505050565b600054610100900460ff16611d915760405162461bcd60e51b8152600401610505906127be565b610c3d33611a05565b600054610100900460ff166119a55760405162461bcd60e51b8152600401610505906127be565b6060611dd08484600085611dda565b90505b9392505050565b606082471015611e3b5760405162461bcd60e51b815260206004820152602660248201527f416464726573733a20696e73756666696369656e742062616c616e636520666f6044820152651c8818d85b1b60d21b6064820152608401610505565b600080866001600160a01b03168587604051611e57919061263b565b60006040518083038185875af1925050503d8060008114611e94576040519150601f19603f3d011682016040523d82523d6000602084013e611e99565b606091505b5091509150611eaa87838387611eb7565b925050505b949350505050565b60608315611f23578251611f1c576001600160a01b0385163b611f1c5760405162461bcd60e51b815260206004820152601d60248201527f416464726573733a2063616c6c20746f206e6f6e2d636f6e74726163740000006044820152606401610505565b5081611eaf565b611eaf8383815115611f385781518083602001fd5b8060405162461bcd60e51b815260040161050591906127ab565b80356104bf81612a64565b60008083601f840112611f6e578182fd5b50813567ffffffffffffffff811115611f85578182fd5b6020830191508360208083028501011115611f9f57600080fd5b9250929050565b600082601f830112611fb6578081fd5b813567ffffffffffffffff80821115611fd157611fd1612a4e565b604051601f8301601f19908116603f01168101908282118183101715611ff957611ff9612a4e565b81604052838152866020858801011115612011578485fd5b8360208701602083013792830160200193909352509392505050565b805169ffffffffffffffffffff811681146104bf57600080fd5b600060208284031215612058578081fd5b8135611dd381612a64565b600060208284031215612074578081fd5b8151611dd381612a64565b60008060008060008060c08789031215612097578182fd5b86356120a281612a64565b955060208701356120b281612a64565b945060408701356120c281612a64565b9350606087013592506080870135915060a087013567ffffffffffffffff8111156120eb578182fd5b6120f789828a01611fa6565b9150509295509295509295565b600080600080600060a0868803121561211b578081fd5b853561212681612a64565b9450602086013561213681612a64565b93506040860135925060608601359150608086013567ffffffffffffffff81111561215f578182fd5b61216b88828901611fa6565b9150509295509295909350565b60008060008060008060008060006101008a8c031215612196578283fd5b89356121a181612a64565b985060208a01356121b181612a64565b975060408a0135965060608a0135955060808a013567ffffffffffffffff808211156121db578485fd5b6121e78d838e01611f5d565b909750955060a08c0135945060c08c0135935060e08c013591508082111561220d578283fd5b5061221a8c828d01611fa6565b9150509295985092959850929598565b6000806040838503121561223c578182fd5b823561224781612a64565b9150602083013561225781612a64565b809150509250929050565b60008060008060008060008060006101008a8c031215612280578283fd5b893561228b81612a64565b985060208a0135975060408a013567ffffffffffffffff8111156122ad578384fd5b6122b98c828d01611f5d565b90985096505060608a0135945060808a0135935060a08a01356122db81612a64565b925060c08a01356122eb81612a64565b8092505060e08a013590509295985092959850929598565b600080600080600060a0868803121561231a578283fd5b853561232581612a64565b945060208601359350604086013567ffffffffffffffff80821115612348578485fd5b61235489838a01611fa6565b94506060880135915080821115612369578283fd5b61237589838a01611fa6565b9350608088013591508082111561238a578283fd5b5061216b88828901611fa6565b60008060008060008060c087890312156123af578384fd5b86356123ba81612a64565b9550602087013594506040870135935060608701356123d881612a64565b925060808701356123e881612a64565b8092505060a087013590509295509295509295565b60008060008060008060008060006101008a8c03121561241b578283fd5b6124248a611f52565b985060208a0135975060408a0135965060608a013567ffffffffffffffff8082111561244e578485fd5b61245a8d838e01611f5d565b909850965060808c0135955060a08c0135915080821115612479578485fd5b6124858d838e01611fa6565b945060c08c013591508082111561249a578384fd5b6124a68d838e01611fa6565b935060e08c013591508082111561220d578283fd5b6000806000806000806000806000806101208b8d0312156124da578384fd5b8a356124e581612a64565b995060208b0135985060408b0135975060608b013567ffffffffffffffff81111561250e578485fd5b61251a8d828e01611f5d565b90985096505060808b0135945060a08b0135935060c08b013561253c81612a64565b925060e08b013561254c81612a64565b809250506101008b013590509295989b9194979a5092959850565b600060208284031215612578578081fd5b81518015158114611dd3578182fd5b600060208284031215612598578081fd5b5051919050565b600080600080600060a086880312156125b6578283fd5b6125bf8661202d565b94506020860151935060408601519250606086015191506125e26080870161202d565b90509295509295909350565b6000602082840312156125ff578081fd5b815160ff81168114611dd3578182fd5b60008151808452612627816020860160208601612a0c565b601f01601f19169290920160200192915050565b6000825161264d818460208701612a0c565b9190910192915050565b6001600160a01b03868116825285166020820152604081018490526060810183905260a0608082018190526000906126919083018461260f565b979650505050505050565b6001600160a01b0398891681529688166020880152604087019590955260608601939093526080850191909152841660a084015290921660c082015260e08101919091526101000190565b600060018060a01b03808a16835260e0602084015261270960e084018a61260f565b8860408501528381036060850152612721818961260f565b905086608085015281861660a085015283810360c0850152612743818661260f565b9b9a5050505050505050505050565b600060018060a01b038716825285602083015260a0604083015261277960a083018661260f565b828103606084015261278b818661260f565b9050828103608084015261279f818561260f565b98975050505050505050565b600060208252611dd3602083018461260f565b6020808252602b908201527f496e697469616c697a61626c653a20636f6e7472616374206973206e6f74206960408201526a6e697469616c697a696e6760a81b606082015260800190565b868152602080820187905260a0604083018190528201859052600090869060c08401835b8881101561285b57833561284081612a64565b6001600160a01b03168252928201929082019060010161282d565b506001600160a01b0396909616606085015250505060800152949350505050565b60008261289757634e487b7160e01b81526012600452602481fd5b500490565b80825b60018086116128ae57506128d9565b8187048211156128c0576128c0612a38565b808616156128cd57918102915b9490941c93800261289f565b94509492505050565b6000611dd360001960ff8516846000826128fe57506001611dd3565b8161290b57506000611dd3565b8160018114612921576002811461292b57612958565b6001915050611dd3565b60ff84111561293c5761293c612a38565b6001841b91508482111561295257612952612a38565b50611dd3565b5060208310610133831016604e8410600b841016171561298b575081810a8381111561298657612986612a38565b611dd3565b612998848484600161289c565b8086048211156129aa576129aa612a38565b02949350505050565b60008160001904831182151516156129cd576129cd612a38565b500290565b6000828210156129e4576129e4612a38565b500390565b600060ff821660ff841680821015612a0357612a03612a38565b90039392505050565b60005b83811015612a27578181015183820152602001612a0f565b83811115611ab15750506000910152565b634e487b7160e01b600052601160045260246000fd5b634e487b7160e01b600052604160045260246000fd5b6001600160a01b0381168114610ec657600080fdfea26469706673582212201b12ad4a007518d77b49ac79ccdfd75a11b30387c10966016bb8240c8974aa2764736f6c63430008020033",
  "linkReferences": {},
  "deployedLinkReferences": {}
}