{
  "_format": "hh-sol-artifact-1",
  "contractName": "FiberRouter",
  "sourceName": "contracts/upgradeable-Bridge/FiberRouter.sol",
  "abi": [
    {
      "anonymous": false,
      "inputs": [
        {
          "indexed": false,
          "internalType": "address",
          "name": "targetWalletAddress",
          "type": "address"
        },
        {
          "indexed": false,
          "internalType": "address",
          "name": "from",
          "type": "address"
        },
        {
          "indexed": false,
          "internalType": "uint256",
          "name": "amountIn",
          "type": "uint256"
        },
        {
          "indexed": false,
          "internalType": "uint256",
          "name": "amountOut",
          "type": "uint256"
        },
        {
          "indexed": false,
          "internalType": "uint256",
          "name": "sourceNetwork",
          "type": "uint256"
        },
        {
          "indexed": false,
          "internalType": "uint256",
          "name": "targetNetwork",
          "type": "uint256"
        },
        {
          "indexed": false,
          "internalType": "address[]",
          "name": "path",
          "type": "address[]"
        },
        {
          "indexed": false,
          "internalType": "address",
          "name": "targetTokenAddress",
          "type": "address"
        }
      ],
      "name": "FiberSwap",
      "type": "event"
    },
    {
      "anonymous": false,
      "inputs": [
        {
          "indexed": false,
          "internalType": "uint8",
          "name": "version",
          "type": "uint8"
        }
      ],
      "name": "Initialized",
      "type": "event"
    },
    {
      "anonymous": false,
      "inputs": [
        {
          "indexed": true,
          "internalType": "address",
          "name": "previousOwner",
          "type": "address"
        },
        {
          "indexed": true,
          "internalType": "address",
          "name": "newOwner",
          "type": "address"
        }
      ],
      "name": "OwnershipTransferred",
      "type": "event"
    },
    {
      "anonymous": false,
      "inputs": [
        {
          "indexed": false,
          "internalType": "address",
          "name": "to",
          "type": "address"
        },
        {
          "indexed": false,
          "internalType": "uint256",
          "name": "swapAmount",
          "type": "uint256"
        },
        {
          "indexed": false,
          "internalType": "uint256",
          "name": "withdrawalAmount",
          "type": "uint256"
        },
        {
          "indexed": false,
          "internalType": "address[]",
          "name": "path",
          "type": "address[]"
        }
      ],
      "name": "WithdrawSignedAndSwap",
      "type": "event"
    },
    {
      "anonymous": false,
      "inputs": [
        {
          "indexed": false,
          "internalType": "address",
          "name": "tokenAddress",
          "type": "address"
        },
        {
          "indexed": false,
          "internalType": "address",
          "name": "to",
          "type": "address"
        },
        {
          "indexed": false,
          "internalType": "uint256",
          "name": "amount",
          "type": "uint256"
        }
      ],
      "name": "Withdrawal",
      "type": "event"
    },
    {
      "inputs": [
        {
          "internalType": "address",
          "name": "_token",
          "type": "address"
        }
      ],
      "name": "getFoundryTokenPrice",
      "outputs": [
        {
          "internalType": "uint256",
          "name": "",
          "type": "uint256"
        }
      ],
      "stateMutability": "view",
      "type": "function"
    },
    {
      "inputs": [],
      "name": "initialize",
      "outputs": [],
      "stateMutability": "nonpayable",
      "type": "function"
    },
    {
      "inputs": [],
      "name": "owner",
      "outputs": [
        {
          "internalType": "address",
          "name": "",
          "type": "address"
        }
      ],
      "stateMutability": "view",
      "type": "function"
    },
    {
      "inputs": [],
      "name": "pool",
      "outputs": [
        {
          "internalType": "address",
          "name": "",
          "type": "address"
        }
      ],
      "stateMutability": "view",
      "type": "function"
    },
    {
      "inputs": [
        {
          "internalType": "address",
          "name": "",
          "type": "address"
        }
      ],
      "name": "priceFeed",
      "outputs": [
        {
          "internalType": "contract AggregatorV3Interface",
          "name": "",
          "type": "address"
        }
      ],
      "stateMutability": "view",
      "type": "function"
    },
    {
      "inputs": [],
      "name": "renounceOwnership",
      "outputs": [],
      "stateMutability": "nonpayable",
      "type": "function"
    },
    {
      "inputs": [
        {
          "internalType": "address",
          "name": "_token",
          "type": "address"
        },
        {
          "internalType": "address",
          "name": "_oracleAddress",
          "type": "address"
        }
      ],
      "name": "setOracle",
      "outputs": [],
      "stateMutability": "nonpayable",
      "type": "function"
    },
    {
      "inputs": [
        {
          "internalType": "address",
          "name": "_pool",
          "type": "address"
        }
      ],
      "name": "setPool",
      "outputs": [],
      "stateMutability": "nonpayable",
      "type": "function"
    },
    {
      "inputs": [
        {
          "internalType": "address",
          "name": "token",
          "type": "address"
        },
        {
          "internalType": "uint256",
          "name": "amount",
          "type": "uint256"
        },
        {
          "internalType": "uint256",
          "name": "targetNetwork",
          "type": "uint256"
        },
        {
          "internalType": "address",
          "name": "targetToken",
          "type": "address"
        },
        {
          "internalType": "address",
          "name": "targetAddress",
          "type": "address"
        }
      ],
      "name": "swap",
      "outputs": [],
      "stateMutability": "nonpayable",
      "type": "function"
    },
    {
      "inputs": [
        {
          "internalType": "address",
          "name": "swapRouter",
          "type": "address"
        },
        {
          "internalType": "uint256",
          "name": "amountIn",
          "type": "uint256"
        },
        {
          "internalType": "uint256",
          "name": "amountCrossMin",
          "type": "uint256"
        },
        {
          "internalType": "address[]",
          "name": "path",
          "type": "address[]"
        },
        {
          "internalType": "uint256",
          "name": "deadline",
          "type": "uint256"
        },
        {
          "internalType": "uint256",
          "name": "crossTargetNetwork",
          "type": "uint256"
        },
        {
          "internalType": "address",
          "name": "crossTargetToken",
          "type": "address"
        },
        {
          "internalType": "address",
          "name": "crossTargetAddress",
          "type": "address"
        }
      ],
      "name": "swapAndCross",
      "outputs": [],
      "stateMutability": "nonpayable",
      "type": "function"
    },
    {
      "inputs": [
        {
          "internalType": "address",
          "name": "swapRouter",
          "type": "address"
        },
        {
          "internalType": "uint256",
          "name": "amountCrossMin",
          "type": "uint256"
        },
        {
          "internalType": "address[]",
          "name": "path",
          "type": "address[]"
        },
        {
          "internalType": "uint256",
          "name": "deadline",
          "type": "uint256"
        },
        {
          "internalType": "uint256",
          "name": "crossTargetNetwork",
          "type": "uint256"
        },
        {
          "internalType": "address",
          "name": "crossTargetToken",
          "type": "address"
        },
        {
          "internalType": "address",
          "name": "crossTargetAddress",
          "type": "address"
        }
      ],
      "name": "swapAndCrossETH",
      "outputs": [],
      "stateMutability": "payable",
      "type": "function"
    },
    {
      "inputs": [
        {
          "internalType": "address",
          "name": "to",
          "type": "address"
        },
        {
          "internalType": "address",
          "name": "swapRouter",
          "type": "address"
        },
        {
          "internalType": "uint256",
          "name": "amountIn",
          "type": "uint256"
        },
        {
          "internalType": "uint256",
          "name": "amountOutMin",
          "type": "uint256"
        },
        {
          "internalType": "address[]",
          "name": "path",
          "type": "address[]"
        },
        {
          "internalType": "uint256",
          "name": "deadline",
          "type": "uint256"
        }
      ],
      "name": "swapETHForTokenSameNetwork",
      "outputs": [],
      "stateMutability": "payable",
      "type": "function"
    },
    {
      "inputs": [
        {
          "internalType": "address",
          "name": "to",
          "type": "address"
        },
        {
          "internalType": "address",
          "name": "swapRouter",
          "type": "address"
        },
        {
          "internalType": "uint256",
          "name": "amountIn",
          "type": "uint256"
        },
        {
          "internalType": "uint256",
          "name": "amountOutMin",
          "type": "uint256"
        },
        {
          "internalType": "address[]",
          "name": "path",
          "type": "address[]"
        },
        {
          "internalType": "uint256",
          "name": "deadline",
          "type": "uint256"
        }
      ],
      "name": "swapTokenForETHSameNetwork",
      "outputs": [],
      "stateMutability": "nonpayable",
      "type": "function"
    },
    {
      "inputs": [
        {
          "internalType": "address",
          "name": "to",
          "type": "address"
        },
        {
          "internalType": "address",
          "name": "swapRouter",
          "type": "address"
        },
        {
          "internalType": "uint256",
          "name": "amountIn",
          "type": "uint256"
        },
        {
          "internalType": "uint256",
          "name": "amountOutMin",
          "type": "uint256"
        },
        {
          "internalType": "address[]",
          "name": "path",
          "type": "address[]"
        },
        {
          "internalType": "uint256",
          "name": "deadline",
          "type": "uint256"
        }
      ],
      "name": "swapTokenForTokenSameNetwork",
      "outputs": [],
      "stateMutability": "nonpayable",
      "type": "function"
    },
    {
      "inputs": [
        {
          "internalType": "address",
          "name": "newOwner",
          "type": "address"
        }
      ],
      "name": "transferOwnership",
      "outputs": [],
      "stateMutability": "nonpayable",
      "type": "function"
    },
    {
      "inputs": [
        {
          "internalType": "address",
          "name": "token",
          "type": "address"
        },
        {
          "internalType": "address",
          "name": "payee",
          "type": "address"
        },
        {
          "internalType": "uint256",
          "name": "amount",
          "type": "uint256"
        }
      ],
      "name": "withdraw",
      "outputs": [],
      "stateMutability": "nonpayable",
      "type": "function"
    },
    {
      "inputs": [
        {
          "internalType": "address",
          "name": "to",
          "type": "address"
        },
        {
          "internalType": "address",
          "name": "swapRouter",
          "type": "address"
        },
        {
          "internalType": "uint256",
          "name": "amountIn",
          "type": "uint256"
        },
        {
          "internalType": "uint256",
          "name": "amountOutMin",
          "type": "uint256"
        },
        {
          "internalType": "address[]",
          "name": "path",
          "type": "address[]"
        },
        {
          "internalType": "uint256",
          "name": "deadline",
          "type": "uint256"
        }
      ],
      "name": "withdrawAndSwap",
      "outputs": [],
      "stateMutability": "nonpayable",
      "type": "function"
    },
    {
      "inputs": [
        {
          "internalType": "address",
          "name": "bridgeFoundry",
          "type": "address"
        },
        {
          "internalType": "address",
          "name": "targetFoundry",
          "type": "address"
        },
        {
          "internalType": "address",
          "name": "payee",
          "type": "address"
        },
        {
          "internalType": "uint256",
          "name": "amount",
          "type": "uint256"
        }
      ],
      "name": "withdrawAndSwapToFoundry",
      "outputs": [],
      "stateMutability": "nonpayable",
      "type": "function"
    },
    {
      "inputs": [
        {
          "internalType": "address",
          "name": "token",
          "type": "address"
        },
        {
          "internalType": "address",
          "name": "payee",
          "type": "address"
        },
        {
          "internalType": "uint256",
          "name": "amount",
          "type": "uint256"
        },
        {
          "internalType": "bytes32",
          "name": "salt",
          "type": "bytes32"
        },
        {
          "internalType": "bytes",
          "name": "multiSignature",
          "type": "bytes"
        }
      ],
      "name": "withdrawSigned",
      "outputs": [],
      "stateMutability": "nonpayable",
      "type": "function"
    },
    {
      "inputs": [
        {
          "internalType": "address",
          "name": "to",
          "type": "address"
        },
        {
          "internalType": "address",
          "name": "swapRouter",
          "type": "address"
        },
        {
          "internalType": "uint256",
          "name": "amountIn",
          "type": "uint256"
        },
        {
          "internalType": "uint256",
          "name": "amountOutMin",
          "type": "uint256"
        },
        {
          "internalType": "address[]",
          "name": "path",
          "type": "address[]"
        },
        {
          "internalType": "uint256",
          "name": "deadline",
          "type": "uint256"
        },
        {
          "internalType": "bytes32",
          "name": "salt",
          "type": "bytes32"
        },
        {
          "internalType": "bytes",
          "name": "multiSignature",
          "type": "bytes"
        }
      ],
      "name": "withdrawSignedAndSwap",
      "outputs": [],
      "stateMutability": "nonpayable",
      "type": "function"
    },
    {
      "inputs": [
        {
          "internalType": "address",
          "name": "to",
          "type": "address"
        },
        {
          "internalType": "address",
          "name": "swapRouter",
          "type": "address"
        },
        {
          "internalType": "uint256",
          "name": "amountIn",
          "type": "uint256"
        },
        {
          "internalType": "uint256",
          "name": "amountOutMin",
          "type": "uint256"
        },
        {
          "internalType": "address[]",
          "name": "path",
          "type": "address[]"
        },
        {
          "internalType": "uint256",
          "name": "deadline",
          "type": "uint256"
        },
        {
          "internalType": "bytes32",
          "name": "salt",
          "type": "bytes32"
        },
        {
          "internalType": "bytes",
          "name": "multiSignature",
          "type": "bytes"
        }
      ],
      "name": "withdrawSignedAndSwapETH",
      "outputs": [],
      "stateMutability": "nonpayable",
      "type": "function"
    },
    {
      "inputs": [
        {
          "internalType": "address",
          "name": "bridgeFoundry",
          "type": "address"
        },
        {
          "internalType": "address",
          "name": "targetFoundry",
          "type": "address"
        },
        {
          "internalType": "address",
          "name": "payee",
          "type": "address"
        },
        {
          "internalType": "uint256",
          "name": "amount",
          "type": "uint256"
        },
        {
          "internalType": "bytes32",
          "name": "salt",
          "type": "bytes32"
        },
        {
          "internalType": "bytes",
          "name": "multiSignature",
          "type": "bytes"
        }
      ],
      "name": "withdrawSignedAndSwapToFoundry",
      "outputs": [],
      "stateMutability": "nonpayable",
      "type": "function"
    },
    {
      "stateMutability": "payable",
      "type": "receive"
    }
  ],
  "bytecode": "0x608060405234801561001057600080fd5b50613370806100206000396000f3fe6080604052600436106101395760003560e01c806386214d80116100ab578063a9bc9bc31161006f578063a9bc9bc314610356578063bdb519b414610376578063c695e98e14610396578063d9caed12146103b6578063f1aaf72d146103d6578063f2fde38b146103f657610140565b806386214d80146102b85780638d6e9291146102d85780638da5cb5b146102f85780639f240e7d14610316578063a81cb92e1461033657610140565b80634437152a116100fd5780634437152a1461021b578063473b40991461023b5780635c38eb3a1461024e578063715018a61461026e5780637c8042f4146102835780638129fc1c146102a357610140565b80630efe792d146101455780630f415c661461017857806316f0115b1461018d5780631fd48b9a146101c55780633364a4e5146101fb57610140565b3661014057005b600080fd5b34801561015157600080fd5b5061016561016036600461288f565b610416565b6040519081526020015b60405180910390f35b61018b610186366004612a88565b610563565b005b34801561019957600080fd5b506097546101ad906001600160a01b031681565b6040516001600160a01b03909116815260200161016f565b3480156101d157600080fd5b506101ad6101e036600461288f565b6098602052600090815260409020546001600160a01b031681565b34801561020757600080fd5b5061018b610216366004612b0b565b610799565b34801561022757600080fd5b5061018b61023636600461288f565b610b11565b61018b610249366004612bbd565b610b3b565b34801561025a57600080fd5b5061018b6102693660046128c7565b610d55565b34801561027a57600080fd5b5061018b610d8b565b34801561028f57600080fd5b5061018b61029e366004612cb2565b610d9f565b3480156102af57600080fd5b5061018b610f74565b3480156102c457600080fd5b5061018b6102d3366004612a88565b61108d565b3480156102e457600080fd5b5061018b6102f3366004612a14565b611367565b34801561030457600080fd5b506065546001600160a01b03166101ad565b34801561032257600080fd5b5061018b610331366004612b0b565b611422565b34801561034257600080fd5b5061018b610351366004612c54565b611616565b34801561036257600080fd5b5061018b6103713660046128ff565b611827565b34801561038257600080fd5b5061018b61039136600461294f565b611901565b3480156103a257600080fd5b5061018b6103b1366004612a88565b6119df565b3480156103c257600080fd5b5061018b6103d13660046129d4565b611c74565b3480156103e257600080fd5b5061018b6103f1366004612a88565b611d00565b34801561040257600080fd5b5061018b61041136600461288f565b611f4c565b6001600160a01b03808216600090815260986020526040808220548151633fabe5a360e21b815291519293849391169163feaf968c9160048083019260a0929190829003018186803b15801561046b57600080fd5b505afa15801561047f573d6000803e3d6000fd5b505050506040513d601f19601f820116820180604052508101906104a39190612d8b565b5050506001600160a01b03808616600090815260986020908152604080832054815163313ce56760e01b81529151959750929550919092169263313ce56792600480840193919291829003018186803b1580156104ff57600080fd5b505afa158015610513573d6000803e3d6000fd5b505050506040513d601f19601f820116820180604052508101906105379190612dda565b905061054481601261326a565b61054f90600a613163565b6105599083613234565b925050505b919050565b60003490506000876001600160a01b031663ad5c46486040518163ffffffff1660e01b815260040160206040518083038186803b1580156105a357600080fd5b505afa1580156105b7573d6000803e3d6000fd5b505050506040513d601f19601f820116820180604052508101906105db91906128ab565b60405163095ea7b360e01b81526001600160a01b038a81166004830152602482018590529192509082169063095ea7b390604401602060405180830381600087803b15801561062957600080fd5b505af115801561063d573d6000803e3d6000fd5b505050506040513d601f19601f820116820180604052508101906106619190612d53565b50806001600160a01b031663d0e30db0836040518263ffffffff1660e01b81526004016000604051808303818588803b15801561069d57600080fd5b505af11580156106b1573d6000803e3d6000fd5b5050505050876001600160a01b0316635c11d795838888888e896040518763ffffffff1660e01b81526004016106ec969594939291906130bf565b600060405180830381600087803b15801561070657600080fd5b505af115801561071a573d6000803e3d6000fd5b5050505060008051602061331b833981519152333384896107384690565b468b8b8d8d600081811061075c57634e487b7160e01b600052603260045260246000fd5b9050602002016020810190610771919061288f565b60405161078699989796959493929190612ef4565b60405180910390a1505050505050505050565b600184116107e35760405162461bcd60e51b815260206004820152601260248201527110948e881c185d1a081d1bdbc81cda1bdc9d60721b60448201526064015b60405180910390fd5b6097546001600160a01b0316638d6e9291868660008161081357634e487b7160e01b600052603260045260246000fd5b9050602002016020810190610828919061288f565b308a86866040518663ffffffff1660e01b815260040161084c959493929190612eaf565b602060405180830381600087803b15801561086657600080fd5b505af115801561087a573d6000803e3d6000fd5b505050506040513d601f19601f8201168201806040525081019061089e9190612d73565b50848460008181106108c057634e487b7160e01b600052603260045260246000fd5b90506020020160208101906108d5919061288f565b6040516370a0823160e01b81523060048201526001600160a01b0391909116906370a082319060240160206040518083038186803b15801561091657600080fd5b505afa15801561092a573d6000803e3d6000fd5b505050506040513d601f19601f8201168201806040525081019061094e9190612d73565b96508484600081811061097157634e487b7160e01b600052603260045260246000fd5b9050602002016020810190610986919061288f565b60405163095ea7b360e01b81526001600160a01b038a81166004830152602482018a9052919091169063095ea7b390604401602060405180830381600087803b1580156109d257600080fd5b505af11580156109e6573d6000803e3d6000fd5b505050506040513d601f19601f82011682018060405250810190610a0a9190612d53565b50876001600160a01b0316635c11d795888888888e896040518763ffffffff1660e01b8152600401610a41969594939291906130bf565b600060405180830381600087803b158015610a5b57600080fd5b505af1158015610a6f573d6000803e3d6000fd5b505050507f46d0f740e4b18623824dca8dd04e2cef0da01f43b0f448139f9bf89b469ddc438988888888604051610aaa959493929190612ff0565b60405180910390a16000805160206132fb8339815191528585610ace600182613253565b818110610aeb57634e487b7160e01b600052603260045260246000fd5b9050602002016020810190610b00919061288f565b8a8860405161078693929190612e8b565b610b19611fc2565b609780546001600160a01b0319166001600160a01b0392909216919091179055565b46838114801590610b935750826001600160a01b031687876000818110610b7257634e487b7160e01b600052603260045260246000fd5b9050602002016020810190610b87919061288f565b6001600160a01b031614155b610baf5760405162461bcd60e51b81526004016107da90613031565b600034905060008a6001600160a01b031663ad5c46486040518163ffffffff1660e01b815260040160206040518083038186803b158015610bef57600080fd5b505afa158015610c03573d6000803e3d6000fd5b505050506040513d601f19601f82011682018060405250810190610c2791906128ab565b60405163095ea7b360e01b81526001600160a01b038d81166004830152602482018590529192509082169063095ea7b390604401602060405180830381600087803b158015610c7557600080fd5b505af1158015610c89573d6000803e3d6000fd5b505050506040513d601f19601f82011682018060405250810190610cad9190612d53565b50806001600160a01b031663d0e30db0836040518263ffffffff1660e01b81526004016000604051808303818588803b158015610ce957600080fd5b505af1158015610cfd573d6000803e3d6000fd5b5050505050610d13338c848d8d8d8d8d8d61201c565b60008051602061331b8339815191528433848d468b8f8f8d604051610d4099989796959493929190612ef4565b60405180910390a15050505050505050505050565b610d5d611fc2565b6001600160a01b03918216600090815260986020526040902080546001600160a01b03191691909216179055565b610d93611fc2565b610d9d60006121ee565b565b610da7612240565b46838114801590610dff5750826001600160a01b031687876000818110610dde57634e487b7160e01b600052603260045260246000fd5b9050602002016020810190610df3919061288f565b6001600160a01b031614155b610e1b5760405162461bcd60e51b81526004016107da90613031565b610e5c87876000818110610e3f57634e487b7160e01b600052603260045260246000fd5b9050602002016020810190610e54919061288f565b33308c61229a565b985086866000818110610e7f57634e487b7160e01b600052603260045260246000fd5b9050602002016020810190610e94919061288f565b60405163095ea7b360e01b81526001600160a01b038c81166004830152602482018c9052919091169063095ea7b390604401602060405180830381600087803b158015610ee057600080fd5b505af1158015610ef4573d6000803e3d6000fd5b505050506040513d601f19601f82011682018060405250810190610f189190612d53565b50610f2a338b8b8b8b8b8b8b8b61201c565b60008051602061331b83398151915282338b8b46898d8d8b604051610f5799989796959493929190612ef4565b60405180910390a150610f6960018055565b505050505050505050565b600054610100900460ff1615808015610f945750600054600160ff909116105b80610fae5750303b158015610fae575060005460ff166001145b6110115760405162461bcd60e51b815260206004820152602e60248201527f496e697469616c697a61626c653a20636f6e747261637420697320616c72656160448201526d191e481a5b9a5d1a585b1a5e995960921b60648201526084016107da565b6000805460ff191660011790558015611034576000805461ff0019166101001790555b61103c612430565b61104461245f565b801561108a576000805461ff0019169055604051600181527f7f26b83ff96e1f2b6a682f133852f6798a09c465da95921460cefb38474024989060200160405180910390a15b50565b600182116110d25760405162461bcd60e51b815260206004820152601260248201527110948e881c185d1a081d1bdbc81cda1bdc9d60721b60448201526064016107da565b6097546001600160a01b031663d9caed12848460008161110257634e487b7160e01b600052603260045260246000fd5b9050602002016020810190611117919061288f565b30886040518463ffffffff1660e01b815260040161113793929190612e8b565b602060405180830381600087803b15801561115157600080fd5b505af1158015611165573d6000803e3d6000fd5b505050506040513d601f19601f820116820180604052508101906111899190612d73565b50828260008181106111ab57634e487b7160e01b600052603260045260246000fd5b90506020020160208101906111c0919061288f565b6040516370a0823160e01b81523060048201526001600160a01b0391909116906370a082319060240160206040518083038186803b15801561120157600080fd5b505afa158015611215573d6000803e3d6000fd5b505050506040513d601f19601f820116820180604052508101906112399190612d73565b94508282600081811061125c57634e487b7160e01b600052603260045260246000fd5b9050602002016020810190611271919061288f565b60405163095ea7b360e01b81526001600160a01b03888116600483015260248201889052919091169063095ea7b390604401602060405180830381600087803b1580156112bd57600080fd5b505af11580156112d1573d6000803e3d6000fd5b505050506040513d601f19601f820116820180604052508101906112f59190612d53565b50604051635c11d79560e01b81526001600160a01b03871690635c11d7959061132c9088908890889088908e9089906004016130bf565b600060405180830381600087803b15801561134657600080fd5b505af115801561135a573d6000803e3d6000fd5b5050505050505050505050565b609754604051638d6e929160e01b81526001600160a01b0390911690638d6e92919061139f9088908890889088908890600401612eaf565b602060405180830381600087803b1580156113b957600080fd5b505af11580156113cd573d6000803e3d6000fd5b505050506040513d601f19601f820116820180604052508101906113f19190612d73565b506000805160206132fb83398151915285858560405161141393929190612e8b565b60405180910390a15050505050565b6097546001600160a01b0316638d6e9291868660008161145257634e487b7160e01b600052603260045260246000fd5b9050602002016020810190611467919061288f565b308a86866040518663ffffffff1660e01b815260040161148b959493929190612eaf565b602060405180830381600087803b1580156114a557600080fd5b505af11580156114b9573d6000803e3d6000fd5b505050506040513d601f19601f820116820180604052508101906114dd9190612d73565b50848460008181106114ff57634e487b7160e01b600052603260045260246000fd5b9050602002016020810190611514919061288f565b6040516370a0823160e01b81523060048201526001600160a01b0391909116906370a082319060240160206040518083038186803b15801561155557600080fd5b505afa158015611569573d6000803e3d6000fd5b505050506040513d601f19601f8201168201806040525081019061158d9190612d73565b9650876001600160a01b031663791ac947888888888e896040518763ffffffff1660e01b81526004016115c5969594939291906130bf565b600060405180830381600087803b1580156115df57600080fd5b505af11580156115f3573d6000803e3d6000fd5b506000805160206132fb8339815191529250879150869050610ace600182613253565b468381148015906116395750826001600160a01b0316866001600160a01b031614155b6116555760405162461bcd60e51b81526004016107da90613031565b61166a6001600160a01b03871633308861248e565b60975460405163095ea7b360e01b81526001600160a01b039182166004820152602481018790529087169063095ea7b390604401602060405180830381600087803b1580156116b857600080fd5b505af11580156116cc573d6000803e3d6000fd5b505050506040513d601f19601f820116820180604052508101906116f09190612d53565b506097546040516352f9567d60e01b81526001600160a01b038881166004830152602482018890526044820187905285811660648301528481166084830152909116906352f9567d9060a401602060405180830381600087803b15801561175657600080fd5b505af115801561176a573d6000803e3d6000fd5b505050506040513d601f19601f8201168201806040525081019061178e9190612d73565b506040805160018082528183019092526000916020808301908036833701905050905086816000815181106117d357634e487b7160e01b600052603260045260246000fd5b6001600160a01b039092166020928302919091019091015260008051602061331b83398151915283338880468a878b604051611816989796959493929190612f52565b60405180910390a150505050505050565b600061183285610416565b9050600061183f85610416565b905060008161184e8486613234565b61185891906130fd565b609754604051636ce5768960e11b81529192506001600160a01b03169063d9caed129061188d90899089908690600401612e8b565b602060405180830381600087803b1580156118a757600080fd5b505af11580156118bb573d6000803e3d6000fd5b505050506040513d601f19601f820116820180604052508101906118df9190612d73565b506000805160206132fb83398151915286868360405161181693929190612e8b565b600061190c87610416565b9050600061191987610416565b90506000816119288488613234565b61193291906130fd565b609754604051638d6e929160e01b81529192506001600160a01b031690638d6e92919061196b908b908b9086908b908b90600401612eaf565b602060405180830381600087803b15801561198557600080fd5b505af1158015611999573d6000803e3d6000fd5b505050506040513d601f19601f820116820180604052508101906119bd9190612d73565b506000805160206132fb83398151915288888360405161078693929190612e8b565b82826000818110611a0057634e487b7160e01b600052603260045260246000fd5b9050602002016020810190611a15919061288f565b6001600160a01b03166323b872dd3330886040518463ffffffff1660e01b8152600401611a4493929190612e8b565b602060405180830381600087803b158015611a5e57600080fd5b505af1158015611a72573d6000803e3d6000fd5b505050506040513d601f19601f82011682018060405250810190611a969190612d53565b506000866001600160a01b031663ad5c46486040518163ffffffff1660e01b815260040160206040518083038186803b158015611ad257600080fd5b505afa158015611ae6573d6000803e3d6000fd5b505050506040513d601f19601f82011682018060405250810190611b0a91906128ab565b905083836000818110611b2d57634e487b7160e01b600052603260045260246000fd5b9050602002016020810190611b42919061288f565b60405163095ea7b360e01b81526001600160a01b03898116600483015260248201899052919091169063095ea7b390604401602060405180830381600087803b158015611b8e57600080fd5b505af1158015611ba2573d6000803e3d6000fd5b505050506040513d601f19601f82011682018060405250810190611bc69190612d53565b5060405163791ac94760e01b81526001600160a01b0388169063791ac94790611bfd9089908990899089908f908a906004016130bf565b600060405180830381600087803b158015611c1757600080fd5b505af1158015611c2b573d6000803e3d6000fd5b5050505060008051602061331b83398151915233338888611c494690565b468a8a89604051611c6299989796959493929190612ef4565b60405180910390a15050505050505050565b609754604051636ce5768960e11b81526001600160a01b039091169063d9caed1290611ca890869086908690600401612e8b565b602060405180830381600087803b158015611cc257600080fd5b505af1158015611cd6573d6000803e3d6000fd5b505050506040513d601f19601f82011682018060405250810190611cfa9190612d73565b50505050565b82826000818110611d2157634e487b7160e01b600052603260045260246000fd5b9050602002016020810190611d36919061288f565b6001600160a01b03166323b872dd3330886040518463ffffffff1660e01b8152600401611d6593929190612e8b565b602060405180830381600087803b158015611d7f57600080fd5b505af1158015611d93573d6000803e3d6000fd5b505050506040513d601f19601f82011682018060405250810190611db79190612d53565b5082826000818110611dd957634e487b7160e01b600052603260045260246000fd5b9050602002016020810190611dee919061288f565b60405163095ea7b360e01b81526001600160a01b03888116600483015260248201889052919091169063095ea7b390604401602060405180830381600087803b158015611e3a57600080fd5b505af1158015611e4e573d6000803e3d6000fd5b505050506040513d601f19601f82011682018060405250810190611e729190612d53565b50604051635c11d79560e01b81526001600160a01b03871690635c11d79590611ea99088908890889088908e9089906004016130bf565b600060405180830381600087803b158015611ec357600080fd5b505af1158015611ed7573d6000803e3d6000fd5b5050505060008051602061331b83398151915287338787611ef54690565b4689898181611f05600182613253565b818110611f2257634e487b7160e01b600052603260045260246000fd5b9050602002016020810190611f37919061288f565b60405161181699989796959493929190612ef4565b611f54611fc2565b6001600160a01b038116611fb95760405162461bcd60e51b815260206004820152602660248201527f4f776e61626c653a206e6577206f776e657220697320746865207a65726f206160448201526564647265737360d01b60648201526084016107da565b61108a816121ee565b6065546001600160a01b03163314610d9d5760405162461bcd60e51b815260206004820181905260248201527f4f776e61626c653a2063616c6c6572206973206e6f7420746865206f776e657260448201526064016107da565b604051635c11d79560e01b81526001600160a01b03891690635c11d79590612052908a908a908a908a9030908b906004016130bf565b600060405180830381600087803b15801561206c57600080fd5b505af1158015612080573d6000803e3d6000fd5b5060009250879150869050612096600182613253565b8181106120b357634e487b7160e01b600052603260045260246000fd5b90506020020160208101906120c8919061288f565b60975460405163095ea7b360e01b81526001600160a01b039182166004820152602481018a905291925082169063095ea7b390604401602060405180830381600087803b15801561211857600080fd5b505af115801561212c573d6000803e3d6000fd5b505050506040513d601f19601f820116820180604052508101906121509190612d53565b506097546040516352f9567d60e01b81526001600160a01b038381166004830152602482018a90526044820186905284811660648301528c81166084830152909116906352f9567d9060a401602060405180830381600087803b1580156121b657600080fd5b505af11580156121ca573d6000803e3d6000fd5b505050506040513d601f19601f8201168201806040525081019061135a9190612d73565b606580546001600160a01b038381166001600160a01b0319831681179093556040519116919082907f8be0079c531659141344cd1fd0a4f28419497f9722a3daafe3b4186f6b6457e090600090a35050565b600260015414156122935760405162461bcd60e51b815260206004820152601f60248201527f5265656e7472616e637947756172643a207265656e7472616e742063616c6c0060448201526064016107da565b6002600155565b6040516370a0823160e01b81526001600160a01b03838116600483015260009182918716906370a082319060240160206040518083038186803b1580156122e057600080fd5b505afa1580156122f4573d6000803e3d6000fd5b505050506040513d601f19601f820116820180604052508101906123189190612d73565b905061232f6001600160a01b03871686868661248e565b6040516370a0823160e01b81526001600160a01b038581166004830152600091908816906370a082319060240160206040518083038186803b15801561237457600080fd5b505afa158015612388573d6000803e3d6000fd5b505050506040513d601f19601f820116820180604052508101906123ac9190612d73565b90506123b88282613253565b9250838311156124205760405162461bcd60e51b815260206004820152602d60248201527f53413a2061637475616c20616d6f756e74206c6172676572207468616e20747260448201526c185b9cd9995c88185b5bdd5b9d609a1b60648201526084016107da565b5050949350505050565b60018055565b600054610100900460ff166124575760405162461bcd60e51b81526004016107da90613074565b610d9d6124e6565b600054610100900460ff166124865760405162461bcd60e51b81526004016107da90613074565b610d9d612516565b611cfa846323b872dd60e01b8585856040516024016124af93929190612e8b565b60408051601f198184030181529190526020810180516001600160e01b03166001600160e01b03199093169290921790915261253d565b600054610100900460ff1661250d5760405162461bcd60e51b81526004016107da90613074565b610d9d336121ee565b600054610100900460ff1661242a5760405162461bcd60e51b81526004016107da90613074565b6000612592826040518060400160405280602081526020017f5361666545524332303a206c6f772d6c6576656c2063616c6c206661696c6564815250856001600160a01b03166126149092919063ffffffff16565b80519091501561260f57808060200190518101906125b09190612d53565b61260f5760405162461bcd60e51b815260206004820152602a60248201527f5361666545524332303a204552433230206f7065726174696f6e20646964206e6044820152691bdd081cdd58d8d9595960b21b60648201526084016107da565b505050565b6060612623848460008561262d565b90505b9392505050565b60608247101561268e5760405162461bcd60e51b815260206004820152602660248201527f416464726573733a20696e73756666696369656e742062616c616e636520666f6044820152651c8818d85b1b60d21b60648201526084016107da565b600080866001600160a01b031685876040516126aa9190612e6f565b60006040518083038185875af1925050503d80600081146126e7576040519150601f19603f3d011682016040523d82523d6000602084013e6126ec565b606091505b50915091506126fd8783838761270a565b925050505b949350505050565b6060831561277657825161276f576001600160a01b0385163b61276f5760405162461bcd60e51b815260206004820152601d60248201527f416464726573733a2063616c6c20746f206e6f6e2d636f6e747261637400000060448201526064016107da565b5081612702565b612702838381511561278b5781518083602001fd5b8060405162461bcd60e51b81526004016107da919061301e565b60008083601f8401126127b6578081fd5b50813567ffffffffffffffff8111156127cd578182fd5b60208301915083602080830285010111156127e757600080fd5b9250929050565b600082601f8301126127fe578081fd5b813567ffffffffffffffff80821115612819576128196132cf565b604051601f8301601f19908116603f01168101908282118183101715612841576128416132cf565b81604052838152866020858801011115612859578485fd5b8360208701602083013792830160200193909352509392505050565b805169ffffffffffffffffffff8116811461055e57600080fd5b6000602082840312156128a0578081fd5b8135612626816132e5565b6000602082840312156128bc578081fd5b8151612626816132e5565b600080604083850312156128d9578081fd5b82356128e4816132e5565b915060208301356128f4816132e5565b809150509250929050565b60008060008060808587031215612914578182fd5b843561291f816132e5565b9350602085013561292f816132e5565b9250604085013561293f816132e5565b9396929550929360600135925050565b60008060008060008060c08789031215612967578182fd5b8635612972816132e5565b95506020870135612982816132e5565b94506040870135612992816132e5565b9350606087013592506080870135915060a087013567ffffffffffffffff8111156129bb578182fd5b6129c789828a016127ee565b9150509295509295509295565b6000806000606084860312156129e8578283fd5b83356129f3816132e5565b92506020840135612a03816132e5565b929592945050506040919091013590565b600080600080600060a08688031215612a2b578081fd5b8535612a36816132e5565b94506020860135612a46816132e5565b93506040860135925060608601359150608086013567ffffffffffffffff811115612a6f578182fd5b612a7b888289016127ee565b9150509295509295909350565b600080600080600080600060c0888a031215612aa2578081fd5b8735612aad816132e5565b96506020880135612abd816132e5565b95506040880135945060608801359350608088013567ffffffffffffffff811115612ae6578182fd5b612af28a828b016127a5565b989b979a5095989497959660a090950135949350505050565b60008060008060008060008060006101008a8c031215612b29578283fd5b8935612b34816132e5565b985060208a0135612b44816132e5565b975060408a0135965060608a0135955060808a013567ffffffffffffffff80821115612b6e578485fd5b612b7a8d838e016127a5565b909750955060a08c0135945060c08c0135935060e08c0135915080821115612ba0578283fd5b50612bad8c828d016127ee565b9150509295985092959850929598565b60008060008060008060008060e0898b031215612bd8578182fd5b8835612be3816132e5565b975060208901359650604089013567ffffffffffffffff811115612c05578283fd5b612c118b828c016127a5565b909750955050606089013593506080890135925060a0890135612c33816132e5565b915060c0890135612c43816132e5565b809150509295985092959890939650565b600080600080600060a08688031215612c6b578283fd5b8535612c76816132e5565b945060208601359350604086013592506060860135612c94816132e5565b91506080860135612ca4816132e5565b809150509295509295909350565b60008060008060008060008060006101008a8c031215612cd0578283fd5b8935612cdb816132e5565b985060208a0135975060408a0135965060608a013567ffffffffffffffff811115612d04578384fd5b612d108c828d016127a5565b90975095505060808a0135935060a08a0135925060c08a0135612d32816132e5565b915060e08a0135612d42816132e5565b809150509295985092959850929598565b600060208284031215612d64578081fd5b81518015158114612626578182fd5b600060208284031215612d84578081fd5b5051919050565b600080600080600060a08688031215612da2578283fd5b612dab86612875565b9450602086015193506040860151925060608601519150612dce60808701612875565b90509295509295909350565b600060208284031215612deb578081fd5b815160ff81168114612626578182fd5b60008284526020808501945082825b85811015612e38578135612e1d816132e5565b6001600160a01b031687529582019590820190600101612e0a565b509495945050505050565b60008151808452612e5b81602086016020860161328d565b601f01601f19169290920160200192915050565b60008251612e8181846020870161328d565b9190910192915050565b6001600160a01b039384168152919092166020820152604081019190915260600190565b6001600160a01b03868116825285166020820152604081018490526060810183905260a060808201819052600090612ee990830184612e43565b979650505050505050565b600061010060018060a01b03808d168452808c1660208501528a60408501528960608501528860808501528760a08501528160c0850152612f388285018789612dfb565b925080851660e085015250509a9950505050505050505050565b6001600160a01b038981168252881660208083019190915260408201889052606082018790526080820186905260a0820185905261010060c08301819052845190830181905260009161012084019186820191845b82811015612fce5783516001600160a01b0316855260208501945092810192600101612fa7565b5050506001600160a01b03851660e08501525090509998505050505050505050565b600060018060a01b038716825285602083015284604083015260806060830152612ee9608083018486612dfb565b6000602082526126266020830184612e43565b60208082526023908201527f4552524f523a2053414d4520544f4b454e20574954482053414d45204e4554576040820152624f524b60e81b606082015260800190565b6020808252602b908201527f496e697469616c697a61626c653a20636f6e7472616374206973206e6f74206960408201526a6e697469616c697a696e6760a81b606082015260800190565b600087825286602083015260a060408301526130df60a083018688612dfb565b6001600160a01b039490941660608301525060800152949350505050565b60008261311857634e487b7160e01b81526012600452602481fd5b500490565b80825b600180861161312f575061315a565b818704821115613141576131416132b9565b8086161561314e57918102915b9490941c938002613120565b94509492505050565b600061262660001960ff85168460008261317f57506001612626565b8161318c57506000612626565b81600181146131a257600281146131ac576131d9565b6001915050612626565b60ff8411156131bd576131bd6132b9565b6001841b9150848211156131d3576131d36132b9565b50612626565b5060208310610133831016604e8410600b841016171561320c575081810a83811115613207576132076132b9565b612626565b613219848484600161311d565b80860482111561322b5761322b6132b9565b02949350505050565b600081600019048311821515161561324e5761324e6132b9565b500290565b600082821015613265576132656132b9565b500390565b600060ff821660ff841680821015613284576132846132b9565b90039392505050565b60005b838110156132a8578181015183820152602001613290565b83811115611cfa5750506000910152565b634e487b7160e01b600052601160045260246000fd5b634e487b7160e01b600052604160045260246000fd5b6001600160a01b038116811461108a57600080fdfe2717ead6b9200dd235aad468c9809ea400fe33ac69b5bfaa6d3e90fc922b6398300d764aa2849da49107d241c00081b520eddaa5efe1dc39560448f10490bca1a26469706673582212208edeb7ba72dc047b023d2e49b21d96781a83311b85b4e1c4d450cb887602102764736f6c63430008020033",
  "linkReferences": {},
  "deployedLinkReferences": {}
}