{
  "_format": "hh-sol-artifact-1",
  "contractName": "FiberRouter",
  "sourceName": "contracts/upgradeable-Bridge/FiberRouter.sol",
  "abi": [
    {
      "anonymous": false,
      "inputs": [
        {
          "indexed": false,
          "internalType": "uint8",
          "name": "version",
          "type": "uint8"
        }
      ],
      "name": "Initialized",
      "type": "event"
    },
    {
      "anonymous": false,
      "inputs": [
        {
          "indexed": true,
          "internalType": "address",
          "name": "previousOwner",
          "type": "address"
        },
        {
          "indexed": true,
          "internalType": "address",
          "name": "newOwner",
          "type": "address"
        }
      ],
      "name": "OwnershipTransferred",
      "type": "event"
    },
    {
      "inputs": [
        {
          "internalType": "address",
          "name": "_token",
          "type": "address"
        }
      ],
      "name": "getFoundryTokenPrice",
      "outputs": [
        {
          "internalType": "uint256",
          "name": "",
          "type": "uint256"
        }
      ],
      "stateMutability": "view",
      "type": "function"
    },
    {
      "inputs": [],
      "name": "initialize",
      "outputs": [],
      "stateMutability": "nonpayable",
      "type": "function"
    },
    {
      "inputs": [],
      "name": "owner",
      "outputs": [
        {
          "internalType": "address",
          "name": "",
          "type": "address"
        }
      ],
      "stateMutability": "view",
      "type": "function"
    },
    {
      "inputs": [],
      "name": "pool",
      "outputs": [
        {
          "internalType": "address",
          "name": "",
          "type": "address"
        }
      ],
      "stateMutability": "view",
      "type": "function"
    },
    {
      "inputs": [
        {
          "internalType": "address",
          "name": "",
          "type": "address"
        }
      ],
      "name": "priceFeed",
      "outputs": [
        {
          "internalType": "contract AggregatorV3Interface",
          "name": "",
          "type": "address"
        }
      ],
      "stateMutability": "view",
      "type": "function"
    },
    {
      "inputs": [],
      "name": "renounceOwnership",
      "outputs": [],
      "stateMutability": "nonpayable",
      "type": "function"
    },
    {
      "inputs": [
        {
          "internalType": "address",
          "name": "_token",
          "type": "address"
        },
        {
          "internalType": "address",
          "name": "_oracleAddress",
          "type": "address"
        }
      ],
      "name": "setOracle",
      "outputs": [],
      "stateMutability": "nonpayable",
      "type": "function"
    },
    {
      "inputs": [
        {
          "internalType": "address",
          "name": "_pool",
          "type": "address"
        }
      ],
      "name": "setPool",
      "outputs": [],
      "stateMutability": "nonpayable",
      "type": "function"
    },
    {
      "inputs": [
        {
          "internalType": "address",
          "name": "token",
          "type": "address"
        },
        {
          "internalType": "uint256",
          "name": "amount",
          "type": "uint256"
        },
        {
          "internalType": "uint256",
          "name": "targetNetwork",
          "type": "uint256"
        },
        {
          "internalType": "address",
          "name": "targetToken",
          "type": "address"
        },
        {
          "internalType": "address",
          "name": "targetAddress",
          "type": "address"
        }
      ],
      "name": "swap",
      "outputs": [],
      "stateMutability": "nonpayable",
      "type": "function"
    },
    {
      "inputs": [
        {
          "internalType": "address",
          "name": "swapRouter",
          "type": "address"
        },
        {
          "internalType": "uint256",
          "name": "amountIn",
          "type": "uint256"
        },
        {
          "internalType": "uint256",
          "name": "amountCrossMin",
          "type": "uint256"
        },
        {
          "internalType": "address[]",
          "name": "path",
          "type": "address[]"
        },
        {
          "internalType": "uint256",
          "name": "deadline",
          "type": "uint256"
        },
        {
          "internalType": "uint256",
          "name": "crossTargetNetwork",
          "type": "uint256"
        },
        {
          "internalType": "address",
          "name": "crossTargetToken",
          "type": "address"
        }
      ],
      "name": "swapAndCross",
      "outputs": [],
      "stateMutability": "nonpayable",
      "type": "function"
    },
    {
      "inputs": [
        {
          "internalType": "address",
          "name": "swapRouter",
          "type": "address"
        },
        {
          "internalType": "uint256",
          "name": "amountCrossMin",
          "type": "uint256"
        },
        {
          "internalType": "address[]",
          "name": "path",
          "type": "address[]"
        },
        {
          "internalType": "uint256",
          "name": "deadline",
          "type": "uint256"
        },
        {
          "internalType": "uint256",
          "name": "crossTargetNetwork",
          "type": "uint256"
        },
        {
          "internalType": "address",
          "name": "crossTargetToken",
          "type": "address"
        }
      ],
      "name": "swapAndCrossETH",
      "outputs": [],
      "stateMutability": "payable",
      "type": "function"
    },
    {
      "inputs": [
        {
          "internalType": "address",
          "name": "to",
          "type": "address"
        },
        {
          "internalType": "address",
          "name": "swapRouter",
          "type": "address"
        },
        {
          "internalType": "uint256",
          "name": "amountIn",
          "type": "uint256"
        },
        {
          "internalType": "uint256",
          "name": "amountOutMin",
          "type": "uint256"
        },
        {
          "internalType": "address[]",
          "name": "path",
          "type": "address[]"
        },
        {
          "internalType": "uint256",
          "name": "deadline",
          "type": "uint256"
        }
      ],
      "name": "swapETHForTokenSameNetwork",
      "outputs": [],
      "stateMutability": "payable",
      "type": "function"
    },
    {
      "inputs": [
        {
          "internalType": "address",
          "name": "to",
          "type": "address"
        },
        {
          "internalType": "address",
          "name": "swapRouter",
          "type": "address"
        },
        {
          "internalType": "uint256",
          "name": "amountIn",
          "type": "uint256"
        },
        {
          "internalType": "uint256",
          "name": "amountOutMin",
          "type": "uint256"
        },
        {
          "internalType": "address[]",
          "name": "path",
          "type": "address[]"
        },
        {
          "internalType": "uint256",
          "name": "deadline",
          "type": "uint256"
        }
      ],
      "name": "swapTokenForETHSameNetwork",
      "outputs": [],
      "stateMutability": "nonpayable",
      "type": "function"
    },
    {
      "inputs": [
        {
          "internalType": "address",
          "name": "to",
          "type": "address"
        },
        {
          "internalType": "address",
          "name": "swapRouter",
          "type": "address"
        },
        {
          "internalType": "uint256",
          "name": "amountIn",
          "type": "uint256"
        },
        {
          "internalType": "uint256",
          "name": "amountOutMin",
          "type": "uint256"
        },
        {
          "internalType": "address[]",
          "name": "path",
          "type": "address[]"
        },
        {
          "internalType": "uint256",
          "name": "deadline",
          "type": "uint256"
        }
      ],
      "name": "swapTokenForTokenSameNetwork",
      "outputs": [],
      "stateMutability": "nonpayable",
      "type": "function"
    },
    {
      "inputs": [
        {
          "internalType": "address",
          "name": "newOwner",
          "type": "address"
        }
      ],
      "name": "transferOwnership",
      "outputs": [],
      "stateMutability": "nonpayable",
      "type": "function"
    },
    {
      "inputs": [
        {
          "internalType": "address",
          "name": "token",
          "type": "address"
        },
        {
          "internalType": "address",
          "name": "payee",
          "type": "address"
        },
        {
          "internalType": "uint256",
          "name": "amount",
          "type": "uint256"
        }
      ],
      "name": "withdraw",
      "outputs": [],
      "stateMutability": "nonpayable",
      "type": "function"
    },
    {
      "inputs": [
        {
          "internalType": "address",
          "name": "to",
          "type": "address"
        },
        {
          "internalType": "address",
          "name": "swapRouter",
          "type": "address"
        },
        {
          "internalType": "uint256",
          "name": "amountIn",
          "type": "uint256"
        },
        {
          "internalType": "uint256",
          "name": "amountOutMin",
          "type": "uint256"
        },
        {
          "internalType": "address[]",
          "name": "path",
          "type": "address[]"
        },
        {
          "internalType": "uint256",
          "name": "deadline",
          "type": "uint256"
        }
      ],
      "name": "withdrawAndSwap",
      "outputs": [],
      "stateMutability": "nonpayable",
      "type": "function"
    },
    {
      "inputs": [
        {
          "internalType": "address",
          "name": "bridgeFoundry",
          "type": "address"
        },
        {
          "internalType": "address",
          "name": "targetFoundry",
          "type": "address"
        },
        {
          "internalType": "address",
          "name": "payee",
          "type": "address"
        },
        {
          "internalType": "uint256",
          "name": "amount",
          "type": "uint256"
        }
      ],
      "name": "withdrawAndSwapToFoundry",
      "outputs": [],
      "stateMutability": "nonpayable",
      "type": "function"
    },
    {
      "inputs": [
        {
          "internalType": "address",
          "name": "token",
          "type": "address"
        },
        {
          "internalType": "address",
          "name": "payee",
          "type": "address"
        },
        {
          "internalType": "uint256",
          "name": "amount",
          "type": "uint256"
        },
        {
          "internalType": "bytes32",
          "name": "salt",
          "type": "bytes32"
        },
        {
          "internalType": "bytes",
          "name": "multiSignature",
          "type": "bytes"
        }
      ],
      "name": "withdrawSigned",
      "outputs": [],
      "stateMutability": "nonpayable",
      "type": "function"
    },
    {
      "inputs": [
        {
          "internalType": "address",
          "name": "to",
          "type": "address"
        },
        {
          "internalType": "address",
          "name": "swapRouter",
          "type": "address"
        },
        {
          "internalType": "uint256",
          "name": "amountIn",
          "type": "uint256"
        },
        {
          "internalType": "uint256",
          "name": "amountOutMin",
          "type": "uint256"
        },
        {
          "internalType": "address[]",
          "name": "path",
          "type": "address[]"
        },
        {
          "internalType": "uint256",
          "name": "deadline",
          "type": "uint256"
        },
        {
          "internalType": "bytes32",
          "name": "salt",
          "type": "bytes32"
        },
        {
          "internalType": "bytes",
          "name": "multiSignature",
          "type": "bytes"
        }
      ],
      "name": "withdrawSignedAndSwap",
      "outputs": [],
      "stateMutability": "nonpayable",
      "type": "function"
    },
    {
      "inputs": [
        {
          "internalType": "address",
          "name": "to",
          "type": "address"
        },
        {
          "internalType": "address",
          "name": "swapRouter",
          "type": "address"
        },
        {
          "internalType": "uint256",
          "name": "amountIn",
          "type": "uint256"
        },
        {
          "internalType": "uint256",
          "name": "amountOutMin",
          "type": "uint256"
        },
        {
          "internalType": "address[]",
          "name": "path",
          "type": "address[]"
        },
        {
          "internalType": "uint256",
          "name": "deadline",
          "type": "uint256"
        },
        {
          "internalType": "bytes32",
          "name": "salt",
          "type": "bytes32"
        },
        {
          "internalType": "bytes",
          "name": "multiSignature",
          "type": "bytes"
        }
      ],
      "name": "withdrawSignedAndSwapETH",
      "outputs": [],
      "stateMutability": "nonpayable",
      "type": "function"
    },
    {
      "inputs": [
        {
          "internalType": "address",
          "name": "bridgeFoundry",
          "type": "address"
        },
        {
          "internalType": "address",
          "name": "targetFoundry",
          "type": "address"
        },
        {
          "internalType": "address",
          "name": "payee",
          "type": "address"
        },
        {
          "internalType": "uint256",
          "name": "amount",
          "type": "uint256"
        },
        {
          "internalType": "bytes32",
          "name": "salt",
          "type": "bytes32"
        },
        {
          "internalType": "bytes",
          "name": "multiSignature",
          "type": "bytes"
        }
      ],
      "name": "withdrawSignedAndSwapToFoundry",
      "outputs": [],
      "stateMutability": "nonpayable",
      "type": "function"
    },
    {
      "stateMutability": "payable",
      "type": "receive"
    }
  ],
  "bytecode": "0x608060405234801561001057600080fd5b50612c75806100206000396000f3fe6080604052600436106101395760003560e01c80638d6e9291116100ab578063bdb519b41161006f578063bdb519b414610356578063c695e98e14610376578063d9caed1214610396578063e450219d146103b6578063f1aaf72d146103d6578063f2fde38b146103f657610140565b80638d6e9291146102b85780638da5cb5b146102d85780639f240e7d146102f6578063a81cb92e14610316578063a9bc9bc31461033657610140565b80634437152a116100fd5780634437152a1461021b578063591a40c41461023b5780635c38eb3a1461024e578063715018a61461026e5780638129fc1c1461028357806386214d801461029857610140565b80630efe792d146101455780630f415c661461017857806316f0115b1461018d5780631fd48b9a146101c55780633364a4e5146101fb57610140565b3661014057005b600080fd5b34801561015157600080fd5b50610165610160366004612336565b610416565b6040519081526020015b60405180910390f35b61018b61018636600461252f565b610563565b005b34801561019957600080fd5b506097546101ad906001600160a01b031681565b6040516001600160a01b03909116815260200161016f565b3480156101d157600080fd5b506101ad6101e0366004612336565b6098602052600090815260409020546001600160a01b031681565b34801561020757600080fd5b5061018b6102163660046125b2565b610729565b34801561022757600080fd5b5061018b610236366004612336565b6109d1565b61018b610249366004612664565b6109fb565b34801561025a57600080fd5b5061018b61026936600461236e565b610bdf565b34801561027a57600080fd5b5061018b610c15565b34801561028f57600080fd5b5061018b610c29565b3480156102a457600080fd5b5061018b6102b336600461252f565b610d42565b3480156102c457600080fd5b5061018b6102d33660046124bb565b61101c565b3480156102e457600080fd5b506065546001600160a01b03166101ad565b34801561030257600080fd5b5061018b6103113660046125b2565b6110ae565b34801561032257600080fd5b5061018b6103313660046126e9565b611251565b34801561034257600080fd5b5061018b6103513660046123a6565b6113d2565b34801561036257600080fd5b5061018b6103713660046123f6565b611494565b34801561038257600080fd5b5061018b61039136600461252f565b611550565b3480156103a257600080fd5b5061018b6103b136600461247b565b6116f9565b3480156103c257600080fd5b5061018b6103d1366004612747565b611785565b3480156103e257600080fd5b5061018b6103f136600461252f565b61191a565b34801561040257600080fd5b5061018b610411366004612336565b6119f3565b6001600160a01b03808216600090815260986020526040808220548151633fabe5a360e21b815291519293849391169163feaf968c9160048083019260a0929190829003018186803b15801561046b57600080fd5b505afa15801561047f573d6000803e3d6000fd5b505050506040513d601f19601f820116820180604052508101906104a3919061280d565b5050506001600160a01b03808616600090815260986020908152604080832054815163313ce56760e01b81529151959750929550919092169263313ce56792600480840193919291829003018186803b1580156104ff57600080fd5b505afa158015610513573d6000803e3d6000fd5b505050506040513d601f19601f82011682018060405250810190610537919061285c565b9050610544816012612baf565b61054f90600a612aa8565b6105599083612b79565b925050505b919050565b60003490506000876001600160a01b031663ad5c46486040518163ffffffff1660e01b815260040160206040518083038186803b1580156105a357600080fd5b505afa1580156105b7573d6000803e3d6000fd5b505050506040513d601f19601f820116820180604052508101906105db9190612352565b60405163095ea7b360e01b81526001600160a01b038a81166004830152602482018590529192509082169063095ea7b390604401602060405180830381600087803b15801561062957600080fd5b505af115801561063d573d6000803e3d6000fd5b505050506040513d601f19601f8201168201806040525081019061066191906127d5565b50806001600160a01b031663d0e30db0836040518263ffffffff1660e01b81526004016000604051808303818588803b15801561069d57600080fd5b505af11580156106b1573d6000803e3d6000fd5b5050505050876001600160a01b0316635c11d795838888888e896040518763ffffffff1660e01b81526004016106ec969594939291906129cf565b600060405180830381600087803b15801561070657600080fd5b505af115801561071a573d6000803e3d6000fd5b50505050505050505050505050565b600184116107735760405162461bcd60e51b815260206004820152601260248201527110948e881c185d1a081d1bdbc81cda1bdc9d60721b60448201526064015b60405180910390fd5b6097546001600160a01b0316638d6e929186866000816107a357634e487b7160e01b600052603260045260246000fd5b90506020020160208101906107b89190612336565b308a86866040518663ffffffff1660e01b81526004016107dc9594939291906128e9565b602060405180830381600087803b1580156107f657600080fd5b505af115801561080a573d6000803e3d6000fd5b505050506040513d601f19601f8201168201806040525081019061082e91906127f5565b508484600081811061085057634e487b7160e01b600052603260045260246000fd5b90506020020160208101906108659190612336565b6040516370a0823160e01b81523060048201526001600160a01b0391909116906370a082319060240160206040518083038186803b1580156108a657600080fd5b505afa1580156108ba573d6000803e3d6000fd5b505050506040513d601f19601f820116820180604052508101906108de91906127f5565b96508484600081811061090157634e487b7160e01b600052603260045260246000fd5b90506020020160208101906109169190612336565b60405163095ea7b360e01b81526001600160a01b038a81166004830152602482018a9052919091169063095ea7b390604401602060405180830381600087803b15801561096257600080fd5b505af1158015610976573d6000803e3d6000fd5b505050506040513d601f19601f8201168201806040525081019061099a91906127d5565b50876001600160a01b0316635c11d795888888888e896040518763ffffffff1660e01b81526004016106ec969594939291906129cf565b6109d9611a69565b609780546001600160a01b0319166001600160a01b0392909216919091179055565b46828114801590610a535750816001600160a01b031686866000818110610a3257634e487b7160e01b600052603260045260246000fd5b9050602002016020810190610a479190612336565b6001600160a01b031614155b610a6f5760405162461bcd60e51b815260040161076a90612941565b60003490506000896001600160a01b031663ad5c46486040518163ffffffff1660e01b815260040160206040518083038186803b158015610aaf57600080fd5b505afa158015610ac3573d6000803e3d6000fd5b505050506040513d601f19601f82011682018060405250810190610ae79190612352565b60405163095ea7b360e01b81526001600160a01b038c81166004830152602482018590529192509082169063095ea7b390604401602060405180830381600087803b158015610b3557600080fd5b505af1158015610b49573d6000803e3d6000fd5b505050506040513d601f19601f82011682018060405250810190610b6d91906127d5565b50806001600160a01b031663d0e30db0836040518263ffffffff1660e01b81526004016000604051808303818588803b158015610ba957600080fd5b505af1158015610bbd573d6000803e3d6000fd5b5050505050610bd3338b848c8c8c8c8c8c611ac3565b50505050505050505050565b610be7611a69565b6001600160a01b03918216600090815260986020526040902080546001600160a01b03191691909216179055565b610c1d611a69565b610c276000611c95565b565b600054610100900460ff1615808015610c495750600054600160ff909116105b80610c635750303b158015610c63575060005460ff166001145b610cc65760405162461bcd60e51b815260206004820152602e60248201527f496e697469616c697a61626c653a20636f6e747261637420697320616c72656160448201526d191e481a5b9a5d1a585b1a5e995960921b606482015260840161076a565b6000805460ff191660011790558015610ce9576000805461ff0019166101001790555b610cf1611ce7565b610cf9611d16565b8015610d3f576000805461ff0019169055604051600181527f7f26b83ff96e1f2b6a682f133852f6798a09c465da95921460cefb38474024989060200160405180910390a15b50565b60018211610d875760405162461bcd60e51b815260206004820152601260248201527110948e881c185d1a081d1bdbc81cda1bdc9d60721b604482015260640161076a565b6097546001600160a01b031663d9caed128484600081610db757634e487b7160e01b600052603260045260246000fd5b9050602002016020810190610dcc9190612336565b30886040518463ffffffff1660e01b8152600401610dec939291906128c5565b602060405180830381600087803b158015610e0657600080fd5b505af1158015610e1a573d6000803e3d6000fd5b505050506040513d601f19601f82011682018060405250810190610e3e91906127f5565b5082826000818110610e6057634e487b7160e01b600052603260045260246000fd5b9050602002016020810190610e759190612336565b6040516370a0823160e01b81523060048201526001600160a01b0391909116906370a082319060240160206040518083038186803b158015610eb657600080fd5b505afa158015610eca573d6000803e3d6000fd5b505050506040513d601f19601f82011682018060405250810190610eee91906127f5565b945082826000818110610f1157634e487b7160e01b600052603260045260246000fd5b9050602002016020810190610f269190612336565b60405163095ea7b360e01b81526001600160a01b03888116600483015260248201889052919091169063095ea7b390604401602060405180830381600087803b158015610f7257600080fd5b505af1158015610f86573d6000803e3d6000fd5b505050506040513d601f19601f82011682018060405250810190610faa91906127d5565b50604051635c11d79560e01b81526001600160a01b03871690635c11d79590610fe19088908890889088908e9089906004016129cf565b600060405180830381600087803b158015610ffb57600080fd5b505af115801561100f573d6000803e3d6000fd5b5050505050505050505050565b609754604051638d6e929160e01b81526001600160a01b0390911690638d6e92919061105490889088908890889088906004016128e9565b602060405180830381600087803b15801561106e57600080fd5b505af1158015611082573d6000803e3d6000fd5b505050506040513d601f19601f820116820180604052508101906110a691906127f5565b505050505050565b6097546001600160a01b0316638d6e929186866000816110de57634e487b7160e01b600052603260045260246000fd5b90506020020160208101906110f39190612336565b308a86866040518663ffffffff1660e01b81526004016111179594939291906128e9565b602060405180830381600087803b15801561113157600080fd5b505af1158015611145573d6000803e3d6000fd5b505050506040513d601f19601f8201168201806040525081019061116991906127f5565b508484600081811061118b57634e487b7160e01b600052603260045260246000fd5b90506020020160208101906111a09190612336565b6040516370a0823160e01b81523060048201526001600160a01b0391909116906370a082319060240160206040518083038186803b1580156111e157600080fd5b505afa1580156111f5573d6000803e3d6000fd5b505050506040513d601f19601f8201168201806040525081019061121991906127f5565b9650876001600160a01b031663791ac947888888888e896040518763ffffffff1660e01b81526004016106ec969594939291906129cf565b468381148015906112745750826001600160a01b0316866001600160a01b031614155b6112905760405162461bcd60e51b815260040161076a90612941565b6112a56001600160a01b038716333088611d45565b60975460405163095ea7b360e01b81526001600160a01b039182166004820152602481018790529087169063095ea7b390604401602060405180830381600087803b1580156112f357600080fd5b505af1158015611307573d6000803e3d6000fd5b505050506040513d601f19601f8201168201806040525081019061132b91906127d5565b506097546040516352f9567d60e01b81526001600160a01b038881166004830152602482018890526044820187905285811660648301528481166084830152909116906352f9567d9060a401602060405180830381600087803b15801561139157600080fd5b505af11580156113a5573d6000803e3d6000fd5b505050506040513d601f19601f820116820180604052508101906113c991906127f5565b50505050505050565b60006113dd85610416565b905060006113ea85610416565b90506000816113f98486612b79565b6114039190612a42565b609754604051636ce5768960e11b81529192506001600160a01b03169063d9caed1290611438908990899086906004016128c5565b602060405180830381600087803b15801561145257600080fd5b505af1158015611466573d6000803e3d6000fd5b505050506040513d601f19601f8201168201806040525081019061148a91906127f5565b5050505050505050565b600061149f87610416565b905060006114ac87610416565b90506000816114bb8488612b79565b6114c59190612a42565b609754604051638d6e929160e01b81529192506001600160a01b031690638d6e9291906114fe908b908b9086908b908b906004016128e9565b602060405180830381600087803b15801561151857600080fd5b505af115801561152c573d6000803e3d6000fd5b505050506040513d601f19601f82011682018060405250810190610bd391906127f5565b8282600081811061157157634e487b7160e01b600052603260045260246000fd5b90506020020160208101906115869190612336565b6001600160a01b03166323b872dd3330886040518463ffffffff1660e01b81526004016115b5939291906128c5565b602060405180830381600087803b1580156115cf57600080fd5b505af11580156115e3573d6000803e3d6000fd5b505050506040513d601f19601f8201168201806040525081019061160791906127d5565b508282600081811061162957634e487b7160e01b600052603260045260246000fd5b905060200201602081019061163e9190612336565b60405163095ea7b360e01b81526001600160a01b03888116600483015260248201889052919091169063095ea7b390604401602060405180830381600087803b15801561168a57600080fd5b505af115801561169e573d6000803e3d6000fd5b505050506040513d601f19601f820116820180604052508101906116c291906127d5565b5060405163791ac94760e01b81526001600160a01b0387169063791ac94790610fe19088908890889088908e9089906004016129cf565b609754604051636ce5768960e11b81526001600160a01b039091169063d9caed129061172d908690869086906004016128c5565b602060405180830381600087803b15801561174757600080fd5b505af115801561175b573d6000803e3d6000fd5b505050506040513d601f19601f8201168201806040525081019061177f91906127f5565b50505050565b61178d611d9d565b468281148015906117e55750816001600160a01b0316868660008181106117c457634e487b7160e01b600052603260045260246000fd5b90506020020160208101906117d99190612336565b6001600160a01b031614155b6118015760405162461bcd60e51b815260040161076a90612941565b6118428686600081811061182557634e487b7160e01b600052603260045260246000fd5b905060200201602081019061183a9190612336565b33308b611df7565b97508585600081811061186557634e487b7160e01b600052603260045260246000fd5b905060200201602081019061187a9190612336565b60405163095ea7b360e01b81526001600160a01b038b81166004830152602482018b9052919091169063095ea7b390604401602060405180830381600087803b1580156118c657600080fd5b505af11580156118da573d6000803e3d6000fd5b505050506040513d601f19601f820116820180604052508101906118fe91906127d5565b50611910338a8a8a8a8a8a8a8a611ac3565b5061148a60018055565b8282600081811061193b57634e487b7160e01b600052603260045260246000fd5b90506020020160208101906119509190612336565b6001600160a01b03166323b872dd3330886040518463ffffffff1660e01b815260040161197f939291906128c5565b602060405180830381600087803b15801561199957600080fd5b505af11580156119ad573d6000803e3d6000fd5b505050506040513d601f19601f820116820180604052508101906119d191906127d5565b5082826000818110610f1157634e487b7160e01b600052603260045260246000fd5b6119fb611a69565b6001600160a01b038116611a605760405162461bcd60e51b815260206004820152602660248201527f4f776e61626c653a206e6577206f776e657220697320746865207a65726f206160448201526564647265737360d01b606482015260840161076a565b610d3f81611c95565b6065546001600160a01b03163314610c275760405162461bcd60e51b815260206004820181905260248201527f4f776e61626c653a2063616c6c6572206973206e6f7420746865206f776e6572604482015260640161076a565b604051635c11d79560e01b81526001600160a01b03891690635c11d79590611af9908a908a908a908a9030908b906004016129cf565b600060405180830381600087803b158015611b1357600080fd5b505af1158015611b27573d6000803e3d6000fd5b5060009250879150869050611b3d600182612b98565b818110611b5a57634e487b7160e01b600052603260045260246000fd5b9050602002016020810190611b6f9190612336565b60975460405163095ea7b360e01b81526001600160a01b039182166004820152602481018a905291925082169063095ea7b390604401602060405180830381600087803b158015611bbf57600080fd5b505af1158015611bd3573d6000803e3d6000fd5b505050506040513d601f19601f82011682018060405250810190611bf791906127d5565b506097546040516352f9567d60e01b81526001600160a01b038381166004830152602482018a90526044820186905284811660648301528c81166084830152909116906352f9567d9060a401602060405180830381600087803b158015611c5d57600080fd5b505af1158015611c71573d6000803e3d6000fd5b505050506040513d601f19601f8201168201806040525081019061100f91906127f5565b606580546001600160a01b038381166001600160a01b0319831681179093556040519116919082907f8be0079c531659141344cd1fd0a4f28419497f9722a3daafe3b4186f6b6457e090600090a35050565b600054610100900460ff16611d0e5760405162461bcd60e51b815260040161076a90612984565b610c27611f8d565b600054610100900460ff16611d3d5760405162461bcd60e51b815260040161076a90612984565b610c27611fbd565b61177f846323b872dd60e01b858585604051602401611d66939291906128c5565b60408051601f198184030181529190526020810180516001600160e01b03166001600160e01b031990931692909217909152611fe4565b60026001541415611df05760405162461bcd60e51b815260206004820152601f60248201527f5265656e7472616e637947756172643a207265656e7472616e742063616c6c00604482015260640161076a565b6002600155565b6040516370a0823160e01b81526001600160a01b03838116600483015260009182918716906370a082319060240160206040518083038186803b158015611e3d57600080fd5b505afa158015611e51573d6000803e3d6000fd5b505050506040513d601f19601f82011682018060405250810190611e7591906127f5565b9050611e8c6001600160a01b038716868686611d45565b6040516370a0823160e01b81526001600160a01b038581166004830152600091908816906370a082319060240160206040518083038186803b158015611ed157600080fd5b505afa158015611ee5573d6000803e3d6000fd5b505050506040513d601f19601f82011682018060405250810190611f0991906127f5565b9050611f158282612b98565b925083831115611f7d5760405162461bcd60e51b815260206004820152602d60248201527f53413a2061637475616c20616d6f756e74206c6172676572207468616e20747260448201526c185b9cd9995c88185b5bdd5b9d609a1b606482015260840161076a565b5050949350505050565b60018055565b600054610100900460ff16611fb45760405162461bcd60e51b815260040161076a90612984565b610c2733611c95565b600054610100900460ff16611f875760405162461bcd60e51b815260040161076a90612984565b6000612039826040518060400160405280602081526020017f5361666545524332303a206c6f772d6c6576656c2063616c6c206661696c6564815250856001600160a01b03166120bb9092919063ffffffff16565b8051909150156120b6578080602001905181019061205791906127d5565b6120b65760405162461bcd60e51b815260206004820152602a60248201527f5361666545524332303a204552433230206f7065726174696f6e20646964206e6044820152691bdd081cdd58d8d9595960b21b606482015260840161076a565b505050565b60606120ca84846000856120d4565b90505b9392505050565b6060824710156121355760405162461bcd60e51b815260206004820152602660248201527f416464726573733a20696e73756666696369656e742062616c616e636520666f6044820152651c8818d85b1b60d21b606482015260840161076a565b600080866001600160a01b0316858760405161215191906128a9565b60006040518083038185875af1925050503d806000811461218e576040519150601f19603f3d011682016040523d82523d6000602084013e612193565b606091505b50915091506121a4878383876121b1565b925050505b949350505050565b6060831561221d578251612216576001600160a01b0385163b6122165760405162461bcd60e51b815260206004820152601d60248201527f416464726573733a2063616c6c20746f206e6f6e2d636f6e7472616374000000604482015260640161076a565b50816121a9565b6121a983838151156122325781518083602001fd5b8060405162461bcd60e51b815260040161076a919061292e565b60008083601f84011261225d578081fd5b50813567ffffffffffffffff811115612274578182fd5b602083019150836020808302850101111561228e57600080fd5b9250929050565b600082601f8301126122a5578081fd5b813567ffffffffffffffff808211156122c0576122c0612c14565b604051601f8301601f19908116603f011681019082821181831017156122e8576122e8612c14565b81604052838152866020858801011115612300578485fd5b8360208701602083013792830160200193909352509392505050565b805169ffffffffffffffffffff8116811461055e57600080fd5b600060208284031215612347578081fd5b81356120cd81612c2a565b600060208284031215612363578081fd5b81516120cd81612c2a565b60008060408385031215612380578081fd5b823561238b81612c2a565b9150602083013561239b81612c2a565b809150509250929050565b600080600080608085870312156123bb578182fd5b84356123c681612c2a565b935060208501356123d681612c2a565b925060408501356123e681612c2a565b9396929550929360600135925050565b60008060008060008060c0878903121561240e578182fd5b863561241981612c2a565b9550602087013561242981612c2a565b9450604087013561243981612c2a565b9350606087013592506080870135915060a087013567ffffffffffffffff811115612462578182fd5b61246e89828a01612295565b9150509295509295509295565b60008060006060848603121561248f578283fd5b833561249a81612c2a565b925060208401356124aa81612c2a565b929592945050506040919091013590565b600080600080600060a086880312156124d2578081fd5b85356124dd81612c2a565b945060208601356124ed81612c2a565b93506040860135925060608601359150608086013567ffffffffffffffff811115612516578182fd5b61252288828901612295565b9150509295509295909350565b600080600080600080600060c0888a031215612549578081fd5b873561255481612c2a565b9650602088013561256481612c2a565b95506040880135945060608801359350608088013567ffffffffffffffff81111561258d578182fd5b6125998a828b0161224c565b989b979a5095989497959660a090950135949350505050565b60008060008060008060008060006101008a8c0312156125d0578283fd5b89356125db81612c2a565b985060208a01356125eb81612c2a565b975060408a0135965060608a0135955060808a013567ffffffffffffffff80821115612615578485fd5b6126218d838e0161224c565b909750955060a08c0135945060c08c0135935060e08c0135915080821115612647578283fd5b506126548c828d01612295565b9150509295985092959850929598565b600080600080600080600060c0888a03121561267e578081fd5b873561268981612c2a565b965060208801359550604088013567ffffffffffffffff8111156126ab578182fd5b6126b78a828b0161224c565b909650945050606088013592506080880135915060a08801356126d981612c2a565b8091505092959891949750929550565b600080600080600060a08688031215612700578283fd5b853561270b81612c2a565b94506020860135935060408601359250606086013561272981612c2a565b9150608086013561273981612c2a565b809150509295509295909350565b60008060008060008060008060e0898b031215612762578182fd5b883561276d81612c2a565b97506020890135965060408901359550606089013567ffffffffffffffff811115612796578283fd5b6127a28b828c0161224c565b9096509450506080890135925060a0890135915060c08901356127c481612c2a565b809150509295985092959890939650565b6000602082840312156127e6578081fd5b815180151581146120cd578182fd5b600060208284031215612806578081fd5b5051919050565b600080600080600060a08688031215612824578283fd5b61282d8661231c565b94506020860151935060408601519250606086015191506128506080870161231c565b90509295509295909350565b60006020828403121561286d578081fd5b815160ff811681146120cd578182fd5b60008151808452612895816020860160208601612bd2565b601f01601f19169290920160200192915050565b600082516128bb818460208701612bd2565b9190910192915050565b6001600160a01b039384168152919092166020820152604081019190915260600190565b6001600160a01b03868116825285166020820152604081018490526060810183905260a0608082018190526000906129239083018461287d565b979650505050505050565b6000602082526120cd602083018461287d565b60208082526023908201527f4552524f523a2053414d4520544f4b454e20574954482053414d45204e4554576040820152624f524b60e81b606082015260800190565b6020808252602b908201527f496e697469616c697a61626c653a20636f6e7472616374206973206e6f74206960408201526a6e697469616c697a696e6760a81b606082015260800190565b868152602080820187905260a0604083018190528201859052600090869060c08401835b88811015612a21578335612a0681612c2a565b6001600160a01b0316825292820192908201906001016129f3565b506001600160a01b0396909616606085015250505060800152949350505050565b600082612a5d57634e487b7160e01b81526012600452602481fd5b500490565b80825b6001808611612a745750612a9f565b818704821115612a8657612a86612bfe565b80861615612a9357918102915b9490941c938002612a65565b94509492505050565b60006120cd60001960ff851684600082612ac4575060016120cd565b81612ad1575060006120cd565b8160018114612ae75760028114612af157612b1e565b60019150506120cd565b60ff841115612b0257612b02612bfe565b6001841b915084821115612b1857612b18612bfe565b506120cd565b5060208310610133831016604e8410600b8410161715612b51575081810a83811115612b4c57612b4c612bfe565b6120cd565b612b5e8484846001612a62565b808604821115612b7057612b70612bfe565b02949350505050565b6000816000190483118215151615612b9357612b93612bfe565b500290565b600082821015612baa57612baa612bfe565b500390565b600060ff821660ff841680821015612bc957612bc9612bfe565b90039392505050565b60005b83811015612bed578181015183820152602001612bd5565b8381111561177f5750506000910152565b634e487b7160e01b600052601160045260246000fd5b634e487b7160e01b600052604160045260246000fd5b6001600160a01b0381168114610d3f57600080fdfea2646970667358221220cc27ef654063ec240b3cbc97b8654a7c71959ab0b22dcd837f2133f70562c6d664736f6c63430008020033",
  "linkReferences": {},
  "deployedLinkReferences": {}
}