{
  "_format": "hh-sol-artifact-1",
  "contractName": "FiberRouter",
  "sourceName": "contracts/upgradeable-Bridge/FiberRouter.sol",
  "abi": [
    {
      "anonymous": false,
      "inputs": [
        {
          "indexed": false,
          "internalType": "uint8",
          "name": "version",
          "type": "uint8"
        }
      ],
      "name": "Initialized",
      "type": "event"
    },
    {
      "anonymous": false,
      "inputs": [
        {
          "indexed": true,
          "internalType": "address",
          "name": "previousOwner",
          "type": "address"
        },
        {
          "indexed": true,
          "internalType": "address",
          "name": "newOwner",
          "type": "address"
        }
      ],
      "name": "OwnershipTransferred",
      "type": "event"
    },
    {
      "anonymous": false,
      "inputs": [
        {
          "indexed": false,
          "internalType": "address",
          "name": "sourceToken",
          "type": "address"
        },
        {
          "indexed": false,
          "internalType": "address",
          "name": "targetToken",
          "type": "address"
        },
        {
          "indexed": false,
          "internalType": "uint256",
          "name": "sourceChainId",
          "type": "uint256"
        },
        {
          "indexed": false,
          "internalType": "uint256",
          "name": "targetChainId",
          "type": "uint256"
        },
        {
          "indexed": false,
          "internalType": "uint256",
          "name": "sourceAmount",
          "type": "uint256"
        },
        {
          "indexed": false,
          "internalType": "address",
          "name": "sourceAddress",
          "type": "address"
        },
        {
          "indexed": false,
          "internalType": "address",
          "name": "targetAddress",
          "type": "address"
        }
      ],
      "name": "Swap",
      "type": "event"
    },
    {
      "inputs": [
        {
          "internalType": "address",
          "name": "_token",
          "type": "address"
        }
      ],
      "name": "getFee",
      "outputs": [
        {
          "internalType": "uint256",
          "name": "_fee",
          "type": "uint256"
        }
      ],
      "stateMutability": "view",
      "type": "function"
    },
    {
      "inputs": [
        {
          "internalType": "address",
          "name": "_token",
          "type": "address"
        }
      ],
      "name": "getFoundryTokenPrice",
      "outputs": [
        {
          "internalType": "uint256",
          "name": "",
          "type": "uint256"
        }
      ],
      "stateMutability": "view",
      "type": "function"
    },
    {
      "inputs": [],
      "name": "initialize",
      "outputs": [],
      "stateMutability": "nonpayable",
      "type": "function"
    },
    {
      "inputs": [
        {
          "internalType": "address",
          "name": "token",
          "type": "address"
        },
        {
          "internalType": "uint256",
          "name": "amount",
          "type": "uint256"
        },
        {
          "internalType": "string",
          "name": "targetNetwork",
          "type": "string"
        },
        {
          "internalType": "string",
          "name": "targetToken",
          "type": "string"
        },
        {
          "internalType": "string",
          "name": "targetAddress",
          "type": "string"
        }
      ],
      "name": "nonEvmSwap",
      "outputs": [],
      "stateMutability": "nonpayable",
      "type": "function"
    },
    {
      "inputs": [
        {
          "internalType": "address",
          "name": "swapRouter",
          "type": "address"
        },
        {
          "internalType": "uint256",
          "name": "amountIn",
          "type": "uint256"
        },
        {
          "internalType": "uint256",
          "name": "amountCrossMin",
          "type": "uint256"
        },
        {
          "internalType": "address[]",
          "name": "path",
          "type": "address[]"
        },
        {
          "internalType": "uint256",
          "name": "deadline",
          "type": "uint256"
        },
        {
          "internalType": "string",
          "name": "crossTargetNetwork",
          "type": "string"
        },
        {
          "internalType": "string",
          "name": "crossTargetToken",
          "type": "string"
        },
        {
          "internalType": "string",
          "name": "receiver",
          "type": "string"
        }
      ],
      "name": "nonEvmSwapAndCross",
      "outputs": [],
      "stateMutability": "nonpayable",
      "type": "function"
    },
    {
      "inputs": [],
      "name": "owner",
      "outputs": [
        {
          "internalType": "address",
          "name": "",
          "type": "address"
        }
      ],
      "stateMutability": "view",
      "type": "function"
    },
    {
      "inputs": [],
      "name": "pool",
      "outputs": [
        {
          "internalType": "address",
          "name": "",
          "type": "address"
        }
      ],
      "stateMutability": "view",
      "type": "function"
    },
    {
      "inputs": [
        {
          "internalType": "address",
          "name": "",
          "type": "address"
        }
      ],
      "name": "priceFeed",
      "outputs": [
        {
          "internalType": "contract AggregatorV3Interface",
          "name": "",
          "type": "address"
        }
      ],
      "stateMutability": "view",
      "type": "function"
    },
    {
      "inputs": [],
      "name": "renounceOwnership",
      "outputs": [],
      "stateMutability": "nonpayable",
      "type": "function"
    },
    {
      "inputs": [
        {
          "internalType": "address",
          "name": "_token",
          "type": "address"
        },
        {
          "internalType": "uint256",
          "name": "_fee",
          "type": "uint256"
        }
      ],
      "name": "setFee",
      "outputs": [],
      "stateMutability": "nonpayable",
      "type": "function"
    },
    {
      "inputs": [
        {
          "internalType": "address",
          "name": "_token",
          "type": "address"
        },
        {
          "internalType": "address",
          "name": "_oracleAddress",
          "type": "address"
        }
      ],
      "name": "setOracle",
      "outputs": [],
      "stateMutability": "nonpayable",
      "type": "function"
    },
    {
      "inputs": [
        {
          "internalType": "address",
          "name": "_pool",
          "type": "address"
        }
      ],
      "name": "setPool",
      "outputs": [],
      "stateMutability": "nonpayable",
      "type": "function"
    },
    {
      "inputs": [
        {
          "internalType": "address",
          "name": "token",
          "type": "address"
        },
        {
          "internalType": "uint256",
          "name": "amount",
          "type": "uint256"
        },
        {
          "internalType": "uint256",
          "name": "targetNetwork",
          "type": "uint256"
        },
        {
          "internalType": "address",
          "name": "targetToken",
          "type": "address"
        },
        {
          "internalType": "address",
          "name": "targetAddress",
          "type": "address"
        }
      ],
      "name": "swap",
      "outputs": [],
      "stateMutability": "nonpayable",
      "type": "function"
    },
    {
      "inputs": [
        {
          "internalType": "address",
          "name": "swapRouter",
          "type": "address"
        },
        {
          "internalType": "uint256",
          "name": "amountIn",
          "type": "uint256"
        },
        {
          "internalType": "uint256",
          "name": "amountCrossMin",
          "type": "uint256"
        },
        {
          "internalType": "address[]",
          "name": "path",
          "type": "address[]"
        },
        {
          "internalType": "uint256",
          "name": "deadline",
          "type": "uint256"
        },
        {
          "internalType": "uint256",
          "name": "crossTargetNetwork",
          "type": "uint256"
        },
        {
          "internalType": "address",
          "name": "crossTargetToken",
          "type": "address"
        }
      ],
      "name": "swapAndCross",
      "outputs": [],
      "stateMutability": "nonpayable",
      "type": "function"
    },
    {
      "inputs": [
        {
          "internalType": "address",
          "name": "swapRouter",
          "type": "address"
        },
        {
          "internalType": "uint256",
          "name": "amountCrossMin",
          "type": "uint256"
        },
        {
          "internalType": "address[]",
          "name": "path",
          "type": "address[]"
        },
        {
          "internalType": "uint256",
          "name": "deadline",
          "type": "uint256"
        },
        {
          "internalType": "uint256",
          "name": "crossTargetNetwork",
          "type": "uint256"
        },
        {
          "internalType": "address",
          "name": "crossTargetToken",
          "type": "address"
        }
      ],
      "name": "swapAndCrossETH",
      "outputs": [],
      "stateMutability": "payable",
      "type": "function"
    },
    {
      "inputs": [
        {
          "internalType": "address",
          "name": "to",
          "type": "address"
        },
        {
          "internalType": "address",
          "name": "swapRouter",
          "type": "address"
        },
        {
          "internalType": "uint256",
          "name": "amountIn",
          "type": "uint256"
        },
        {
          "internalType": "uint256",
          "name": "amountOutMin",
          "type": "uint256"
        },
        {
          "internalType": "address[]",
          "name": "path",
          "type": "address[]"
        },
        {
          "internalType": "uint256",
          "name": "deadline",
          "type": "uint256"
        }
      ],
      "name": "swapETHForTokenSameNetwork",
      "outputs": [],
      "stateMutability": "payable",
      "type": "function"
    },
    {
      "inputs": [
        {
          "internalType": "address",
          "name": "",
          "type": "address"
        }
      ],
      "name": "swapFee",
      "outputs": [
        {
          "internalType": "uint256",
          "name": "",
          "type": "uint256"
        }
      ],
      "stateMutability": "view",
      "type": "function"
    },
    {
      "inputs": [
        {
          "internalType": "address",
          "name": "to",
          "type": "address"
        },
        {
          "internalType": "address",
          "name": "swapRouter",
          "type": "address"
        },
        {
          "internalType": "uint256",
          "name": "amountIn",
          "type": "uint256"
        },
        {
          "internalType": "uint256",
          "name": "amountOutMin",
          "type": "uint256"
        },
        {
          "internalType": "address[]",
          "name": "path",
          "type": "address[]"
        },
        {
          "internalType": "uint256",
          "name": "deadline",
          "type": "uint256"
        }
      ],
      "name": "swapTokenForETHSameNetwork",
      "outputs": [],
      "stateMutability": "nonpayable",
      "type": "function"
    },
    {
      "inputs": [
        {
          "internalType": "address",
          "name": "to",
          "type": "address"
        },
        {
          "internalType": "address",
          "name": "swapRouter",
          "type": "address"
        },
        {
          "internalType": "uint256",
          "name": "amountIn",
          "type": "uint256"
        },
        {
          "internalType": "uint256",
          "name": "amountOutMin",
          "type": "uint256"
        },
        {
          "internalType": "address[]",
          "name": "path",
          "type": "address[]"
        },
        {
          "internalType": "uint256",
          "name": "deadline",
          "type": "uint256"
        }
      ],
      "name": "swapTokenForTokenSameNetwork",
      "outputs": [],
      "stateMutability": "nonpayable",
      "type": "function"
    },
    {
      "inputs": [
        {
          "internalType": "address",
          "name": "newOwner",
          "type": "address"
        }
      ],
      "name": "transferOwnership",
      "outputs": [],
      "stateMutability": "nonpayable",
      "type": "function"
    },
    {
      "inputs": [
        {
          "internalType": "address",
          "name": "token",
          "type": "address"
        },
        {
          "internalType": "address",
          "name": "payee",
          "type": "address"
        },
        {
          "internalType": "uint256",
          "name": "amount",
          "type": "uint256"
        }
      ],
      "name": "withdraw",
      "outputs": [],
      "stateMutability": "nonpayable",
      "type": "function"
    },
    {
      "inputs": [
        {
          "internalType": "address",
          "name": "to",
          "type": "address"
        },
        {
          "internalType": "address",
          "name": "swapRouter",
          "type": "address"
        },
        {
          "internalType": "uint256",
          "name": "amountIn",
          "type": "uint256"
        },
        {
          "internalType": "uint256",
          "name": "amountOutMin",
          "type": "uint256"
        },
        {
          "internalType": "address[]",
          "name": "path",
          "type": "address[]"
        },
        {
          "internalType": "uint256",
          "name": "deadline",
          "type": "uint256"
        }
      ],
      "name": "withdrawAndSwap",
      "outputs": [],
      "stateMutability": "nonpayable",
      "type": "function"
    },
    {
      "inputs": [
        {
          "internalType": "address",
          "name": "bridgeFoundry",
          "type": "address"
        },
        {
          "internalType": "address",
          "name": "targetFoundry",
          "type": "address"
        },
        {
          "internalType": "address",
          "name": "payee",
          "type": "address"
        },
        {
          "internalType": "uint256",
          "name": "amount",
          "type": "uint256"
        }
      ],
      "name": "withdrawAndSwapToFoundry",
      "outputs": [],
      "stateMutability": "nonpayable",
      "type": "function"
    },
    {
      "inputs": [
        {
          "internalType": "address",
          "name": "token",
          "type": "address"
        },
        {
          "internalType": "address",
          "name": "payee",
          "type": "address"
        },
        {
          "internalType": "uint256",
          "name": "amount",
          "type": "uint256"
        },
        {
          "internalType": "bytes32",
          "name": "salt",
          "type": "bytes32"
        },
        {
          "internalType": "bytes",
          "name": "multiSignature",
          "type": "bytes"
        }
      ],
      "name": "withdrawSigned",
      "outputs": [],
      "stateMutability": "nonpayable",
      "type": "function"
    },
    {
      "inputs": [
        {
          "internalType": "address",
          "name": "to",
          "type": "address"
        },
        {
          "internalType": "address",
          "name": "swapRouter",
          "type": "address"
        },
        {
          "internalType": "uint256",
          "name": "amountIn",
          "type": "uint256"
        },
        {
          "internalType": "uint256",
          "name": "amountOutMin",
          "type": "uint256"
        },
        {
          "internalType": "address[]",
          "name": "path",
          "type": "address[]"
        },
        {
          "internalType": "uint256",
          "name": "deadline",
          "type": "uint256"
        },
        {
          "internalType": "bytes32",
          "name": "salt",
          "type": "bytes32"
        },
        {
          "internalType": "bytes",
          "name": "multiSignature",
          "type": "bytes"
        }
      ],
      "name": "withdrawSignedAndSwap",
      "outputs": [],
      "stateMutability": "nonpayable",
      "type": "function"
    },
    {
      "inputs": [
        {
          "internalType": "address",
          "name": "to",
          "type": "address"
        },
        {
          "internalType": "address",
          "name": "swapRouter",
          "type": "address"
        },
        {
          "internalType": "uint256",
          "name": "amountIn",
          "type": "uint256"
        },
        {
          "internalType": "uint256",
          "name": "amountOutMin",
          "type": "uint256"
        },
        {
          "internalType": "address[]",
          "name": "path",
          "type": "address[]"
        },
        {
          "internalType": "uint256",
          "name": "deadline",
          "type": "uint256"
        },
        {
          "internalType": "bytes32",
          "name": "salt",
          "type": "bytes32"
        },
        {
          "internalType": "bytes",
          "name": "multiSignature",
          "type": "bytes"
        }
      ],
      "name": "withdrawSignedAndSwapETH",
      "outputs": [],
      "stateMutability": "nonpayable",
      "type": "function"
    },
    {
      "inputs": [
        {
          "internalType": "address",
          "name": "bridgeFoundry",
          "type": "address"
        },
        {
          "internalType": "address",
          "name": "targetFoundry",
          "type": "address"
        },
        {
          "internalType": "address",
          "name": "payee",
          "type": "address"
        },
        {
          "internalType": "uint256",
          "name": "amount",
          "type": "uint256"
        },
        {
          "internalType": "bytes32",
          "name": "salt",
          "type": "bytes32"
        },
        {
          "internalType": "bytes",
          "name": "multiSignature",
          "type": "bytes"
        }
      ],
      "name": "withdrawSignedAndSwapToFoundry",
      "outputs": [],
      "stateMutability": "nonpayable",
      "type": "function"
    },
    {
      "stateMutability": "payable",
      "type": "receive"
    }
  ],
  "bytecode": "0x608060405234801561001057600080fd5b50613438806100206000396000f3fe6080604052600436106101a05760003560e01c80638d6e9291116100ec578063bdb519b41161008a578063e450219d11610064578063e450219d146104c0578063e55156b5146104e0578063f1aaf72d14610500578063f2fde38b14610520576101a7565b8063bdb519b414610460578063c695e98e14610480578063d9caed12146104a0576101a7565b8063a6ae80e2116100c6578063a6ae80e2146103bd578063a81cb92e146103ea578063a9bc9bc31461040a578063b88c91481461042a576101a7565b80638d6e92911461035f5780638da5cb5b1461037f5780639f240e7d1461039d576101a7565b8063591a40c41161015957806373050a8a1161013357806373050a8a146102ea5780638129fc1c1461030a57806386214d801461031f5780638909d7331461033f576101a7565b8063591a40c4146102a25780635c38eb3a146102b5578063715018a6146102d5576101a7565b80630efe792d146101ac5780630f415c66146101df57806316f0115b146101f45780631fd48b9a1461022c5780633364a4e5146102625780634437152a14610282576101a7565b366101a757005b600080fd5b3480156101b857600080fd5b506101cc6101c73660046128e7565b610540565b6040519081526020015b60405180910390f35b6101f26101ed366004612ae0565b61068d565b005b34801561020057600080fd5b50609754610214906001600160a01b031681565b6040516001600160a01b0390911681526020016101d6565b34801561023857600080fd5b506102146102473660046128e7565b6098602052600090815260409020546001600160a01b031681565b34801561026e57600080fd5b506101f261027d366004612b63565b610850565b34801561028e57600080fd5b506101f261029d3660046128e7565b610af3565b6101f26102b0366004612c40565b610b5e565b3480156102c157600080fd5b506101f26102d036600461291f565b610d3f565b3480156102e157600080fd5b506101f2610dc1565b3480156102f657600080fd5b506101f2610305366004612cc5565b610dd5565b34801561031657600080fd5b506101f2610f03565b34801561032b57600080fd5b506101f261033a366004612ae0565b61101c565b34801561034b57600080fd5b506101f261035a366004612db7565b6112f1565b34801561036b57600080fd5b506101f261037a366004612a6c565b611417565b34801561038b57600080fd5b506065546001600160a01b0316610214565b3480156103a957600080fd5b506101f26103b8366004612b63565b61144f565b3480156103c957600080fd5b506101cc6103d83660046128e7565b60996020526000908152604090205481565b3480156103f657600080fd5b506101f2610405366004612d59565b6115f2565b34801561041657600080fd5b506101f2610425366004612957565b6117d8565b34801561043657600080fd5b506101cc6104453660046128e7565b6001600160a01b031660009081526099602052604090205490565b34801561046c57600080fd5b506101f261047b3660046129a7565b61189a565b34801561048c57600080fd5b506101f261049b366004612ae0565b611956565b3480156104ac57600080fd5b506101f26104bb366004612a2c565b611afa565b3480156104cc57600080fd5b506101f26104db366004612e75565b611b86565b3480156104ec57600080fd5b506101f26104fb366004612c15565b611cf9565b34801561050c57600080fd5b506101f261051b366004612ae0565b611d43565b34801561052c57600080fd5b506101f261053b3660046128e7565b611e1c565b6001600160a01b03808216600090815260986020526040808220548151633fabe5a360e21b815291519293849391169163feaf968c9160048083019260a0929190829003018186803b15801561059557600080fd5b505afa1580156105a9573d6000803e3d6000fd5b505050506040513d601f19601f820116820180604052508101906105cd9190612f3b565b5050506001600160a01b03808616600090815260986020908152604080832054815163313ce56760e01b81529151959750929550919092169263313ce56792600480840193919291829003018186803b15801561062957600080fd5b505afa15801561063d573d6000803e3d6000fd5b505050506040513d601f19601f820116820180604052508101906106619190612f8a565b905061066e816012613372565b61067990600a61326b565b610683908361333c565b925050505b919050565b60003490506000876001600160a01b031663ad5c46486040518163ffffffff1660e01b815260040160206040518083038186803b1580156106cd57600080fd5b505afa1580156106e1573d6000803e3d6000fd5b505050506040513d601f19601f820116820180604052508101906107059190612903565b60405163095ea7b360e01b81529091506001600160a01b0382169063095ea7b390610736908b90869060040161305c565b602060405180830381600087803b15801561075057600080fd5b505af1158015610764573d6000803e3d6000fd5b505050506040513d601f19601f820116820180604052508101906107889190612f03565b50806001600160a01b031663d0e30db0836040518263ffffffff1660e01b81526004016000604051808303818588803b1580156107c457600080fd5b505af11580156107d8573d6000803e3d6000fd5b5050505050876001600160a01b0316635c11d795838888888e896040518763ffffffff1660e01b815260040161081396959493929190613192565b600060405180830381600087803b15801561082d57600080fd5b505af1158015610841573d6000803e3d6000fd5b50505050505050505050505050565b6001841161089a5760405162461bcd60e51b815260206004820152601260248201527110948e881c185d1a081d1bdbc81cda1bdc9d60721b60448201526064015b60405180910390fd5b6097546001600160a01b0316638d6e929186866000816108ca57634e487b7160e01b600052603260045260246000fd5b90506020020160208101906108df91906128e7565b308a86866040518663ffffffff1660e01b8152600401610903959493929190613017565b602060405180830381600087803b15801561091d57600080fd5b505af1158015610931573d6000803e3d6000fd5b505050506040513d601f19601f820116820180604052508101906109559190612f23565b508484600081811061097757634e487b7160e01b600052603260045260246000fd5b905060200201602081019061098c91906128e7565b6040516370a0823160e01b81523060048201526001600160a01b0391909116906370a082319060240160206040518083038186803b1580156109cd57600080fd5b505afa1580156109e1573d6000803e3d6000fd5b505050506040513d601f19601f82011682018060405250810190610a059190612f23565b965084846000818110610a2857634e487b7160e01b600052603260045260246000fd5b9050602002016020810190610a3d91906128e7565b6001600160a01b031663095ea7b389896040518363ffffffff1660e01b8152600401610a6a92919061305c565b602060405180830381600087803b158015610a8457600080fd5b505af1158015610a98573d6000803e3d6000fd5b505050506040513d601f19601f82011682018060405250810190610abc9190612f03565b50876001600160a01b0316635c11d795888888888e896040518763ffffffff1660e01b815260040161081396959493929190613192565b610afb611e92565b6001600160a01b038116610b3c5760405162461bcd60e51b815260206004820152600860248201526710985908141bdbdb60c21b6044820152606401610891565b609780546001600160a01b0319166001600160a01b0392909216919091179055565b46828114801590610bb65750816001600160a01b031686866000818110610b9557634e487b7160e01b600052603260045260246000fd5b9050602002016020810190610baa91906128e7565b6001600160a01b031614155b610bd25760405162461bcd60e51b815260040161089190613104565b60003490506000896001600160a01b031663ad5c46486040518163ffffffff1660e01b815260040160206040518083038186803b158015610c1257600080fd5b505afa158015610c26573d6000803e3d6000fd5b505050506040513d601f19601f82011682018060405250810190610c4a9190612903565b60405163095ea7b360e01b81529091506001600160a01b0382169063095ea7b390610c7b908d90869060040161305c565b602060405180830381600087803b158015610c9557600080fd5b505af1158015610ca9573d6000803e3d6000fd5b505050506040513d601f19601f82011682018060405250810190610ccd9190612f03565b50806001600160a01b031663d0e30db0836040518263ffffffff1660e01b81526004016000604051808303818588803b158015610d0957600080fd5b505af1158015610d1d573d6000803e3d6000fd5b5050505050610d33338b848c8c8c8c8c8c611eec565b50505050505050505050565b610d47611e92565b6001600160a01b038216610d6d5760405162461bcd60e51b8152600401610891906130e1565b6001600160a01b038116610d935760405162461bcd60e51b8152600401610891906130e1565b6001600160a01b03918216600090815260986020526040902080546001600160a01b03191691909216179055565b610dc9611e92565b610dd360006120be565b565b610dea6001600160a01b038616333087612110565b60975460405163095ea7b360e01b81526001600160a01b038781169263095ea7b392610e1e9290911690889060040161305c565b602060405180830381600087803b158015610e3857600080fd5b505af1158015610e4c573d6000803e3d6000fd5b505050506040513d601f19601f82011682018060405250810190610e709190612f03565b5060975460405163ad93428360e01b81526001600160a01b039091169063ad93428390610ea99088908890889088908890600401613075565b602060405180830381600087803b158015610ec357600080fd5b505af1158015610ed7573d6000803e3d6000fd5b505050506040513d601f19601f82011682018060405250810190610efb9190612f23565b505050505050565b600054610100900460ff1615808015610f235750600054600160ff909116105b80610f3d5750303b158015610f3d575060005460ff166001145b610fa05760405162461bcd60e51b815260206004820152602e60248201527f496e697469616c697a61626c653a20636f6e747261637420697320616c72656160448201526d191e481a5b9a5d1a585b1a5e995960921b6064820152608401610891565b6000805460ff191660011790558015610fc3576000805461ff0019166101001790555b610fcb612168565b610fd3612197565b8015611019576000805461ff0019169055604051600181527f7f26b83ff96e1f2b6a682f133852f6798a09c465da95921460cefb38474024989060200160405180910390a15b50565b600182116110615760405162461bcd60e51b815260206004820152601260248201527110948e881c185d1a081d1bdbc81cda1bdc9d60721b6044820152606401610891565b6097546001600160a01b031663d9caed12848460008161109157634e487b7160e01b600052603260045260246000fd5b90506020020160208101906110a691906128e7565b30886040518463ffffffff1660e01b81526004016110c693929190612ff3565b602060405180830381600087803b1580156110e057600080fd5b505af11580156110f4573d6000803e3d6000fd5b505050506040513d601f19601f820116820180604052508101906111189190612f23565b508282600081811061113a57634e487b7160e01b600052603260045260246000fd5b905060200201602081019061114f91906128e7565b6040516370a0823160e01b81523060048201526001600160a01b0391909116906370a082319060240160206040518083038186803b15801561119057600080fd5b505afa1580156111a4573d6000803e3d6000fd5b505050506040513d601f19601f820116820180604052508101906111c89190612f23565b9450828260008181106111eb57634e487b7160e01b600052603260045260246000fd5b905060200201602081019061120091906128e7565b6001600160a01b031663095ea7b387876040518363ffffffff1660e01b815260040161122d92919061305c565b602060405180830381600087803b15801561124757600080fd5b505af115801561125b573d6000803e3d6000fd5b505050506040513d601f19601f8201168201806040525081019061127f9190612f03565b50604051635c11d79560e01b81526001600160a01b03871690635c11d795906112b69088908890889088908e908990600401613192565b600060405180830381600087803b1580156112d057600080fd5b505af11580156112e4573d6000803e3d6000fd5b5050505050505050505050565b6112f96121c6565b61133a8686600081811061131d57634e487b7160e01b600052603260045260246000fd5b905060200201602081019061133291906128e7565b33308b612220565b97508585600081811061135d57634e487b7160e01b600052603260045260246000fd5b905060200201602081019061137291906128e7565b6001600160a01b031663095ea7b38a8a6040518363ffffffff1660e01b815260040161139f92919061305c565b602060405180830381600087803b1580156113b957600080fd5b505af11580156113cd573d6000803e3d6000fd5b505050506040513d601f19601f820116820180604052508101906113f19190612f03565b50611403818a8a8a8a8a8a8a8a6123b0565b61140c60018055565b505050505050505050565b609754604051638d6e929160e01b81526001600160a01b0390911690638d6e929190610ea99088908890889088908890600401613017565b6097546001600160a01b0316638d6e9291868660008161147f57634e487b7160e01b600052603260045260246000fd5b905060200201602081019061149491906128e7565b308a86866040518663ffffffff1660e01b81526004016114b8959493929190613017565b602060405180830381600087803b1580156114d257600080fd5b505af11580156114e6573d6000803e3d6000fd5b505050506040513d601f19601f8201168201806040525081019061150a9190612f23565b508484600081811061152c57634e487b7160e01b600052603260045260246000fd5b905060200201602081019061154191906128e7565b6040516370a0823160e01b81523060048201526001600160a01b0391909116906370a082319060240160206040518083038186803b15801561158257600080fd5b505afa158015611596573d6000803e3d6000fd5b505050506040513d601f19601f820116820180604052508101906115ba9190612f23565b9650876001600160a01b031663791ac947888888888e896040518763ffffffff1660e01b815260040161081396959493929190613192565b468381148015906116155750826001600160a01b0316866001600160a01b031614155b6116315760405162461bcd60e51b815260040161089190613104565b6116466001600160a01b038716333088612110565b60975460405163095ea7b360e01b81526001600160a01b038881169263095ea7b39261167a9290911690899060040161305c565b602060405180830381600087803b15801561169457600080fd5b505af11580156116a8573d6000803e3d6000fd5b505050506040513d601f19601f820116820180604052508101906116cc9190612f03565b506097546040516352f9567d60e01b81526001600160a01b038881166004830152602482018890526044820187905285811660648301528481166084830152909116906352f9567d9060a401602060405180830381600087803b15801561173257600080fd5b505af1158015611746573d6000803e3d6000fd5b505050506040513d601f19601f8201168201806040525081019061176a9190612f23565b50604080516001600160a01b0380891682528086166020830152468284015260608201879052608082018890523360a0830152841660c082015290517f36ae4b8940731f7c85b7db5bd11f85e01c730875f98d40504a8ae214393ca58d9181900360e00190a1505050505050565b60006117e385610540565b905060006117f085610540565b90506000816117ff848661333c565b6118099190613205565b609754604051636ce5768960e11b81529192506001600160a01b03169063d9caed129061183e90899089908690600401612ff3565b602060405180830381600087803b15801561185857600080fd5b505af115801561186c573d6000803e3d6000fd5b505050506040513d601f19601f820116820180604052508101906118909190612f23565b5050505050505050565b60006118a587610540565b905060006118b287610540565b90506000816118c1848861333c565b6118cb9190613205565b609754604051638d6e929160e01b81529192506001600160a01b031690638d6e929190611904908b908b9086908b908b90600401613017565b602060405180830381600087803b15801561191e57600080fd5b505af1158015611932573d6000803e3d6000fd5b505050506040513d601f19601f82011682018060405250810190610d339190612f23565b8282600081811061197757634e487b7160e01b600052603260045260246000fd5b905060200201602081019061198c91906128e7565b6001600160a01b03166323b872dd3330886040518463ffffffff1660e01b81526004016119bb93929190612ff3565b602060405180830381600087803b1580156119d557600080fd5b505af11580156119e9573d6000803e3d6000fd5b505050506040513d601f19601f82011682018060405250810190611a0d9190612f03565b5082826000818110611a2f57634e487b7160e01b600052603260045260246000fd5b9050602002016020810190611a4491906128e7565b6001600160a01b031663095ea7b387876040518363ffffffff1660e01b8152600401611a7192919061305c565b602060405180830381600087803b158015611a8b57600080fd5b505af1158015611a9f573d6000803e3d6000fd5b505050506040513d601f19601f82011682018060405250810190611ac39190612f03565b5060405163791ac94760e01b81526001600160a01b0387169063791ac947906112b69088908890889088908e908990600401613192565b609754604051636ce5768960e11b81526001600160a01b039091169063d9caed1290611b2e90869086908690600401612ff3565b602060405180830381600087803b158015611b4857600080fd5b505af1158015611b5c573d6000803e3d6000fd5b505050506040513d601f19601f82011682018060405250810190611b809190612f23565b50505050565b611b8e6121c6565b46828114801590611be65750816001600160a01b031686866000818110611bc557634e487b7160e01b600052603260045260246000fd5b9050602002016020810190611bda91906128e7565b6001600160a01b031614155b611c025760405162461bcd60e51b815260040161089190613104565b611c268686600081811061131d57634e487b7160e01b600052603260045260246000fd5b975085856000818110611c4957634e487b7160e01b600052603260045260246000fd5b9050602002016020810190611c5e91906128e7565b6001600160a01b031663095ea7b38a8a6040518363ffffffff1660e01b8152600401611c8b92919061305c565b602060405180830381600087803b158015611ca557600080fd5b505af1158015611cb9573d6000803e3d6000fd5b505050506040513d601f19601f82011682018060405250810190611cdd9190612f03565b50611cef338a8a8a8a8a8a8a8a611eec565b5061189060018055565b611d01611e92565b6001600160a01b038216611d275760405162461bcd60e51b8152600401610891906130e1565b6001600160a01b03909116600090815260996020526040902055565b82826000818110611d6457634e487b7160e01b600052603260045260246000fd5b9050602002016020810190611d7991906128e7565b6001600160a01b03166323b872dd3330886040518463ffffffff1660e01b8152600401611da893929190612ff3565b602060405180830381600087803b158015611dc257600080fd5b505af1158015611dd6573d6000803e3d6000fd5b505050506040513d601f19601f82011682018060405250810190611dfa9190612f03565b50828260008181106111eb57634e487b7160e01b600052603260045260246000fd5b611e24611e92565b6001600160a01b038116611e895760405162461bcd60e51b815260206004820152602660248201527f4f776e61626c653a206e6577206f776e657220697320746865207a65726f206160448201526564647265737360d01b6064820152608401610891565b611019816120be565b6065546001600160a01b03163314610dd35760405162461bcd60e51b815260206004820181905260248201527f4f776e61626c653a2063616c6c6572206973206e6f7420746865206f776e65726044820152606401610891565b604051635c11d79560e01b81526001600160a01b03891690635c11d79590611f22908a908a908a908a9030908b90600401613192565b600060405180830381600087803b158015611f3c57600080fd5b505af1158015611f50573d6000803e3d6000fd5b5060009250879150869050611f6660018261335b565b818110611f8357634e487b7160e01b600052603260045260246000fd5b9050602002016020810190611f9891906128e7565b60975460405163095ea7b360e01b81529192506001600160a01b038084169263095ea7b392611fcd9216908b9060040161305c565b602060405180830381600087803b158015611fe757600080fd5b505af1158015611ffb573d6000803e3d6000fd5b505050506040513d601f19601f8201168201806040525081019061201f9190612f03565b506097546040516352f9567d60e01b81526001600160a01b038381166004830152602482018a90526044820186905284811660648301528c81166084830152909116906352f9567d9060a4015b602060405180830381600087803b15801561208657600080fd5b505af115801561209a573d6000803e3d6000fd5b505050506040513d601f19601f820116820180604052508101906112e49190612f23565b606580546001600160a01b038381166001600160a01b0319831681179093556040519116919082907f8be0079c531659141344cd1fd0a4f28419497f9722a3daafe3b4186f6b6457e090600090a35050565b611b80846323b872dd60e01b85858560405160240161213193929190612ff3565b60408051601f198184030181529190526020810180516001600160e01b03166001600160e01b031990931692909217909152612533565b600054610100900460ff1661218f5760405162461bcd60e51b815260040161089190613147565b610dd361260a565b600054610100900460ff166121be5760405162461bcd60e51b815260040161089190613147565b610dd361263a565b600260015414156122195760405162461bcd60e51b815260206004820152601f60248201527f5265656e7472616e637947756172643a207265656e7472616e742063616c6c006044820152606401610891565b6002600155565b6040516370a0823160e01b81526001600160a01b03838116600483015260009182918716906370a082319060240160206040518083038186803b15801561226657600080fd5b505afa15801561227a573d6000803e3d6000fd5b505050506040513d601f19601f8201168201806040525081019061229e9190612f23565b90506122b56001600160a01b038716868686612110565b6040516370a0823160e01b81526001600160a01b038581166004830152600091908816906370a082319060240160206040518083038186803b1580156122fa57600080fd5b505afa15801561230e573d6000803e3d6000fd5b505050506040513d601f19601f820116820180604052508101906123329190612f23565b905061233e828261335b565b9250838311156123a65760405162461bcd60e51b815260206004820152602d60248201527f53413a2061637475616c20616d6f756e74206c6172676572207468616e20747260448201526c185b9cd9995c88185b5bdd5b9d609a1b6064820152608401610891565b5050949350505050565b604051635c11d79560e01b81526001600160a01b03891690635c11d795906123e6908a908a908a908a9030908b90600401613192565b600060405180830381600087803b15801561240057600080fd5b505af1158015612414573d6000803e3d6000fd5b506000925087915086905061242a60018261335b565b81811061244757634e487b7160e01b600052603260045260246000fd5b905060200201602081019061245c91906128e7565b60975460405163095ea7b360e01b81529192506001600160a01b038084169263095ea7b3926124919216908b9060040161305c565b602060405180830381600087803b1580156124ab57600080fd5b505af11580156124bf573d6000803e3d6000fd5b505050506040513d601f19601f820116820180604052508101906124e39190612f03565b50609760009054906101000a90046001600160a01b03166001600160a01b031663ad934283828986868f6040518663ffffffff1660e01b815260040161206c959493929190613075565b60018055565b6000612588826040518060400160405280602081526020017f5361666545524332303a206c6f772d6c6576656c2063616c6c206661696c6564815250856001600160a01b03166126619092919063ffffffff16565b80519091501561260557808060200190518101906125a69190612f03565b6126055760405162461bcd60e51b815260206004820152602a60248201527f5361666545524332303a204552433230206f7065726174696f6e20646964206e6044820152691bdd081cdd58d8d9595960b21b6064820152608401610891565b505050565b600054610100900460ff166126315760405162461bcd60e51b815260040161089190613147565b610dd3336120be565b600054610100900460ff1661252d5760405162461bcd60e51b815260040161089190613147565b6060612670848460008561267a565b90505b9392505050565b6060824710156126db5760405162461bcd60e51b815260206004820152602660248201527f416464726573733a20696e73756666696369656e742062616c616e636520666f6044820152651c8818d85b1b60d21b6064820152608401610891565b600080866001600160a01b031685876040516126f79190612fd7565b60006040518083038185875af1925050503d8060008114612734576040519150601f19603f3d011682016040523d82523d6000602084013e612739565b606091505b509150915061274a87838387612757565b925050505b949350505050565b606083156127c35782516127bc576001600160a01b0385163b6127bc5760405162461bcd60e51b815260206004820152601d60248201527f416464726573733a2063616c6c20746f206e6f6e2d636f6e74726163740000006044820152606401610891565b508161274f565b61274f83838151156127d85781518083602001fd5b8060405162461bcd60e51b815260040161089191906130ce565b8035610688816133ed565b60008083601f84011261280e578182fd5b50813567ffffffffffffffff811115612825578182fd5b602083019150836020808302850101111561283f57600080fd5b9250929050565b600082601f830112612856578081fd5b813567ffffffffffffffff80821115612871576128716133d7565b604051601f8301601f19908116603f01168101908282118183101715612899576128996133d7565b816040528381528660208588010111156128b1578485fd5b8360208701602083013792830160200193909352509392505050565b805169ffffffffffffffffffff8116811461068857600080fd5b6000602082840312156128f8578081fd5b8135612673816133ed565b600060208284031215612914578081fd5b8151612673816133ed565b60008060408385031215612931578081fd5b823561293c816133ed565b9150602083013561294c816133ed565b809150509250929050565b6000806000806080858703121561296c578182fd5b8435612977816133ed565b93506020850135612987816133ed565b92506040850135612997816133ed565b9396929550929360600135925050565b60008060008060008060c087890312156129bf578182fd5b86356129ca816133ed565b955060208701356129da816133ed565b945060408701356129ea816133ed565b9350606087013592506080870135915060a087013567ffffffffffffffff811115612a13578182fd5b612a1f89828a01612846565b9150509295509295509295565b600080600060608486031215612a40578283fd5b8335612a4b816133ed565b92506020840135612a5b816133ed565b929592945050506040919091013590565b600080600080600060a08688031215612a83578081fd5b8535612a8e816133ed565b94506020860135612a9e816133ed565b93506040860135925060608601359150608086013567ffffffffffffffff811115612ac7578182fd5b612ad388828901612846565b9150509295509295909350565b600080600080600080600060c0888a031215612afa578081fd5b8735612b05816133ed565b96506020880135612b15816133ed565b95506040880135945060608801359350608088013567ffffffffffffffff811115612b3e578182fd5b612b4a8a828b016127fd565b989b979a5095989497959660a090950135949350505050565b60008060008060008060008060006101008a8c031215612b81578283fd5b8935612b8c816133ed565b985060208a0135612b9c816133ed565b975060408a0135965060608a0135955060808a013567ffffffffffffffff80821115612bc6578485fd5b612bd28d838e016127fd565b909750955060a08c0135945060c08c0135935060e08c0135915080821115612bf8578283fd5b50612c058c828d01612846565b9150509295985092959850929598565b60008060408385031215612c27578182fd5b8235612c32816133ed565b946020939093013593505050565b600080600080600080600060c0888a031215612c5a578081fd5b8735612c65816133ed565b965060208801359550604088013567ffffffffffffffff811115612c87578182fd5b612c938a828b016127fd565b909650945050606088013592506080880135915060a0880135612cb5816133ed565b8091505092959891949750929550565b600080600080600060a08688031215612cdc578283fd5b8535612ce7816133ed565b945060208601359350604086013567ffffffffffffffff80821115612d0a578485fd5b612d1689838a01612846565b94506060880135915080821115612d2b578283fd5b612d3789838a01612846565b93506080880135915080821115612d4c578283fd5b50612ad388828901612846565b600080600080600060a08688031215612d70578283fd5b8535612d7b816133ed565b945060208601359350604086013592506060860135612d99816133ed565b91506080860135612da9816133ed565b809150509295509295909350565b60008060008060008060008060006101008a8c031215612dd5578283fd5b612dde8a6127f2565b985060208a0135975060408a0135965060608a013567ffffffffffffffff80821115612e08578485fd5b612e148d838e016127fd565b909850965060808c0135955060a08c0135915080821115612e33578485fd5b612e3f8d838e01612846565b945060c08c0135915080821115612e54578384fd5b612e608d838e01612846565b935060e08c0135915080821115612bf8578283fd5b60008060008060008060008060e0898b031215612e90578182fd5b8835612e9b816133ed565b97506020890135965060408901359550606089013567ffffffffffffffff811115612ec4578283fd5b612ed08b828c016127fd565b9096509450506080890135925060a0890135915060c0890135612ef2816133ed565b809150509295985092959890939650565b600060208284031215612f14578081fd5b81518015158114612673578182fd5b600060208284031215612f34578081fd5b5051919050565b600080600080600060a08688031215612f52578283fd5b612f5b866128cd565b9450602086015193506040860151925060608601519150612f7e608087016128cd565b90509295509295909350565b600060208284031215612f9b578081fd5b815160ff81168114612673578182fd5b60008151808452612fc3816020860160208601613395565b601f01601f19169290920160200192915050565b60008251612fe9818460208701613395565b9190910192915050565b6001600160a01b039384168152919092166020820152604081019190915260600190565b6001600160a01b03868116825285166020820152604081018490526060810183905260a06080820181905260009061305190830184612fab565b979650505050505050565b6001600160a01b03929092168252602082015260400190565b600060018060a01b038716825285602083015260a0604083015261309c60a0830186612fab565b82810360608401526130ae8186612fab565b905082810360808401526130c28185612fab565b98975050505050505050565b6000602082526126736020830184612fab565b6020808252600990820152682130b2103a37b5b2b760b91b604082015260600190565b60208082526023908201527f4552524f523a2053414d4520544f4b454e20574954482053414d45204e4554576040820152624f524b60e81b606082015260800190565b6020808252602b908201527f496e697469616c697a61626c653a20636f6e7472616374206973206e6f74206960408201526a6e697469616c697a696e6760a81b606082015260800190565b868152602080820187905260a0604083018190528201859052600090869060c08401835b888110156131e45783356131c9816133ed565b6001600160a01b0316825292820192908201906001016131b6565b506001600160a01b0396909616606085015250505060800152949350505050565b60008261322057634e487b7160e01b81526012600452602481fd5b500490565b80825b60018086116132375750613262565b818704821115613249576132496133c1565b8086161561325657918102915b9490941c938002613228565b94509492505050565b600061267360001960ff85168460008261328757506001612673565b8161329457506000612673565b81600181146132aa57600281146132b4576132e1565b6001915050612673565b60ff8411156132c5576132c56133c1565b6001841b9150848211156132db576132db6133c1565b50612673565b5060208310610133831016604e8410600b8410161715613314575081810a8381111561330f5761330f6133c1565b612673565b6133218484846001613225565b808604821115613333576133336133c1565b02949350505050565b6000816000190483118215151615613356576133566133c1565b500290565b60008282101561336d5761336d6133c1565b500390565b600060ff821660ff84168082101561338c5761338c6133c1565b90039392505050565b60005b838110156133b0578181015183820152602001613398565b83811115611b805750506000910152565b634e487b7160e01b600052601160045260246000fd5b634e487b7160e01b600052604160045260246000fd5b6001600160a01b038116811461101957600080fdfea2646970667358221220e9244a7186b0a15c196f74ce478f2d215fc29f20e565ceb8569654430dd9c5fb64736f6c63430008020033",
  "linkReferences": {},
  "deployedLinkReferences": {}
}